{
  "_format": "hh-sol-artifact-1",
  "contractName": "IRibbonVault",
  "sourceName": "contracts/V2/interfaces/IRibbonVault.sol",
  "abi": [
    {
      "inputs": [
        {
          "internalType": "address",
          "name": "account",
          "type": "address"
        }
      ],
      "name": "accountVaultBalance",
      "outputs": [
        {
          "internalType": "uint256",
          "name": "",
          "type": "uint256"
        }
      ],
      "stateMutability": "view",
      "type": "function"
    },
    {
      "inputs": [],
      "name": "cap",
      "outputs": [
        {
          "internalType": "uint256",
          "name": "",
          "type": "uint256"
        }
      ],
      "stateMutability": "view",
      "type": "function"
    },
    {
      "inputs": [],
      "name": "completeWithdraw",
      "outputs": [],
      "stateMutability": "nonpayable",
      "type": "function"
    },
    {
      "inputs": [],
      "name": "decimals",
      "outputs": [
        {
          "internalType": "uint8",
          "name": "",
          "type": "uint8"
        }
      ],
      "stateMutability": "view",
      "type": "function"
    },
    {
      "inputs": [
        {
          "internalType": "uint256",
          "name": "amount",
          "type": "uint256"
        }
      ],
      "name": "deposit",
      "outputs": [],
      "stateMutability": "nonpayable",
      "type": "function"
    },
    {
      "inputs": [
        {
          "internalType": "uint256",
          "name": "amount",
          "type": "uint256"
        },
        {
          "internalType": "address",
          "name": "creditor",
          "type": "address"
        }
      ],
      "name": "depositFor",
      "outputs": [],
      "stateMutability": "nonpayable",
      "type": "function"
    },
    {
      "inputs": [
        {
          "internalType": "uint128",
          "name": "shares",
          "type": "uint128"
        }
      ],
      "name": "initiateWithdraw",
      "outputs": [],
      "stateMutability": "nonpayable",
      "type": "function"
    },
    {
      "inputs": [],
      "name": "pricePerShare",
      "outputs": [
        {
          "internalType": "uint256",
          "name": "",
          "type": "uint256"
        }
      ],
      "stateMutability": "view",
      "type": "function"
    },
    {
      "inputs": [
        {
          "internalType": "address",
          "name": "account",
          "type": "address"
        }
      ],
      "name": "shareBalances",
      "outputs": [
        {
          "internalType": "uint256",
          "name": "heldByAccount",
          "type": "uint256"
        },
        {
          "internalType": "uint256",
          "name": "heldByVault",
          "type": "uint256"
        }
      ],
      "stateMutability": "view",
      "type": "function"
    },
    {
      "inputs": [
        {
          "internalType": "address",
          "name": "account",
          "type": "address"
        }
      ],
      "name": "shares",
      "outputs": [
        {
          "internalType": "uint256",
          "name": "",
          "type": "uint256"
        }
      ],
      "stateMutability": "view",
      "type": "function"
    },
    {
      "inputs": [],
      "name": "totalBalance",
      "outputs": [
        {
          "internalType": "uint256",
          "name": "",
          "type": "uint256"
        }
      ],
      "stateMutability": "view",
      "type": "function"
    },
    {
      "inputs": [],
      "name": "totalPending",
      "outputs": [
        {
          "internalType": "uint256",
          "name": "",
          "type": "uint256"
        }
      ],
      "stateMutability": "view",
      "type": "function"
    },
    {
      "inputs": [
        {
          "internalType": "uint256",
          "name": "amount",
          "type": "uint256"
        }
      ],
      "name": "withdrawInstantly",
      "outputs": [],
      "stateMutability": "nonpayable",
      "type": "function"
    }
  ],
  "bytecode": "0x608060405234801561001057600080fd5b50610506806100206000396000f3fe608060405234801561001057600080fd5b50600436106100cf5760003560e01c80635dc25e7b1161008c578063b6b55f2511610066578063b6b55f25146101ee578063ce7c2ac21461020a578063f656ba511461023a578063f756fa211461026b576100cf565b80635dc25e7b1461019657806399530b06146101b2578063ad7a672f146101d0576100cf565b80632775d01c146100d4578063313ce567146100f0578063355274ea1461010e57806336efd16f1461012c5780633f23bb73146101485780633f90916a14610178575b600080fd5b6100ee60048036038101906100e99190610344565b610275565b005b6100f8610278565b604051610105919061040b565b60405180910390f35b61011661027d565b60405161012391906103c7565b60405180910390f35b6101466004803603810190610141919061036d565b610282565b005b610162600480360381019061015d91906102f2565b610286565b60405161016f91906103c7565b60405180910390f35b61018061028d565b60405161018d91906103c7565b60405180910390f35b6101b060048036038101906101ab919061031b565b610292565b005b6101ba610295565b6040516101c791906103c7565b60405180910390f35b6101d861029a565b6040516101e591906103c7565b60405180910390f35b61020860048036038101906102039190610344565b61029f565b005b610224600480360381019061021f91906102f2565b6102a2565b60405161023191906103c7565b60405180910390f35b610254600480360381019061024f91906102f2565b6102a9565b6040516102629291906103e2565b60405180910390f35b6102736102b1565b005b50565b600090565b600090565b5050565b6000919050565b600090565b50565b600090565b600090565b50565b6000919050565b600080915091565b565b6000813590506102c28161048b565b92915050565b6000813590506102d7816104a2565b92915050565b6000813590506102ec816104b9565b92915050565b60006020828403121561030457600080fd5b6000610312848285016102b3565b91505092915050565b60006020828403121561032d57600080fd5b600061033b848285016102c8565b91505092915050565b60006020828403121561035657600080fd5b6000610364848285016102dd565b91505092915050565b6000806040838503121561038057600080fd5b600061038e858286016102dd565b925050602061039f858286016102b3565b9150509250929050565b6103b281610474565b82525050565b6103c18161047e565b82525050565b60006020820190506103dc60008301846103a9565b92915050565b60006040820190506103f760008301856103a9565b61040460208301846103a9565b9392505050565b600060208201905061042060008301846103b8565b92915050565b600061043182610454565b9050919050565b60006fffffffffffffffffffffffffffffffff82169050919050565b600073ffffffffffffffffffffffffffffffffffffffff82169050919050565b6000819050919050565b600060ff82169050919050565b61049481610426565b811461049f57600080fd5b50565b6104ab81610438565b81146104b657600080fd5b50565b6104c281610474565b81146104cd57600080fd5b5056fea26469706673582212204957b84d968a2c7fbccadfda7e1930601d1d6053720f0470f874ed41c06814ed64736f6c63430007030033",
  "linkReferences": {},
  "deployedLinkReferences": {}
}