{
  "_format": "hh-sol-artifact-1",
  "contractName": "IRibbonOptionsVault",
  "sourceName": "contracts/V2/interfaces/IRibbonOptionsVault.sol",
  "abi": [
    {
      "inputs": [],
      "name": "currentOption",
      "outputs": [
        {
          "internalType": "address",
          "name": "",
          "type": "address"
        }
      ],
      "stateMutability": "view",
      "type": "function"
    },
    {
      "inputs": [],
      "name": "nextOption",
      "outputs": [
        {
          "internalType": "address",
          "name": "",
          "type": "address"
        }
      ],
      "stateMutability": "view",
      "type": "function"
    },
    {
      "inputs": [],
      "name": "nextOptionReadyAt",
      "outputs": [
        {
          "internalType": "uint256",
          "name": "",
          "type": "uint256"
        }
      ],
      "stateMutability": "view",
      "type": "function"
    }
  ],
  "bytecode": "0x608060405234801561001057600080fd5b50610175806100206000396000f3fe608060405234801561001057600080fd5b50600436106100415760003560e01c80638b10cc7c14610046578063a285c9e814610064578063a2db9d8314610082575b600080fd5b61004e6100a0565b60405161005b91906100cd565b60405180910390f35b61006c6100a5565b60405161007991906100e8565b60405180910390f35b61008a6100aa565b60405161009791906100cd565b60405180910390f35b600090565b600090565b600090565b6100b881610103565b82525050565b6100c781610135565b82525050565b60006020820190506100e260008301846100af565b92915050565b60006020820190506100fd60008301846100be565b92915050565b600061010e82610115565b9050919050565b600073ffffffffffffffffffffffffffffffffffffffff82169050919050565b600081905091905056fea26469706673582212205840a37e85e2223f8a05524df2b184b685d719b7f4057b30f3601036f58b53fc64736f6c63430007030033",
  "linkReferences": {},
  "deployedLinkReferences": {}
}