{
  "_format": "hh-sol-artifact-1",
  "contractName": "RibbonStraddleVault",
  "sourceName": "contracts/short-straddle-example/RibbonStraddleVault.sol",
  "abi": [
    {
      "inputs": [
        {
          "internalType": "address",
          "name": "_weth",
          "type": "address"
        },
        {
          "internalType": "address",
          "name": "_usdc",
          "type": "address"
        }
      ],
      "stateMutability": "nonpayable",
      "type": "constructor"
    },
    {
      "anonymous": false,
      "inputs": [
        {
          "indexed": true,
          "internalType": "address",
          "name": "owner",
          "type": "address"
        },
        {
          "indexed": true,
          "internalType": "address",
          "name": "spender",
          "type": "address"
        },
        {
          "indexed": false,
          "internalType": "uint256",
          "name": "value",
          "type": "uint256"
        }
      ],
      "name": "Approval",
      "type": "event"
    },
    {
      "anonymous": false,
      "inputs": [
        {
          "indexed": false,
          "internalType": "uint256",
          "name": "performanceFee",
          "type": "uint256"
        },
        {
          "indexed": false,
          "internalType": "uint256",
          "name": "vaultFee",
          "type": "uint256"
        },
        {
          "indexed": false,
          "internalType": "uint256",
          "name": "round",
          "type": "uint256"
        }
      ],
      "name": "CollectVaultFees",
      "type": "event"
    },
    {
      "anonymous": false,
      "inputs": [
        {
          "indexed": true,
          "internalType": "address",
          "name": "account",
          "type": "address"
        },
        {
          "indexed": false,
          "internalType": "uint256",
          "name": "amount",
          "type": "uint256"
        },
        {
          "indexed": false,
          "internalType": "uint256",
          "name": "round",
          "type": "uint256"
        }
      ],
      "name": "Deposit",
      "type": "event"
    },
    {
      "anonymous": false,
      "inputs": [
        {
          "indexed": false,
          "internalType": "address",
          "name": "account",
          "type": "address"
        },
        {
          "indexed": false,
          "internalType": "uint256",
          "name": "shares",
          "type": "uint256"
        },
        {
          "indexed": false,
          "internalType": "uint256",
          "name": "round",
          "type": "uint256"
        }
      ],
      "name": "InitiateWithdraw",
      "type": "event"
    },
    {
      "anonymous": false,
      "inputs": [
        {
          "indexed": true,
          "internalType": "address",
          "name": "account",
          "type": "address"
        },
        {
          "indexed": false,
          "internalType": "uint256",
          "name": "amount",
          "type": "uint256"
        },
        {
          "indexed": false,
          "internalType": "uint256",
          "name": "round",
          "type": "uint256"
        }
      ],
      "name": "InstantWithdraw",
      "type": "event"
    },
    {
      "anonymous": false,
      "inputs": [
        {
          "indexed": true,
          "internalType": "address",
          "name": "previousOwner",
          "type": "address"
        },
        {
          "indexed": true,
          "internalType": "address",
          "name": "newOwner",
          "type": "address"
        }
      ],
      "name": "OwnershipTransferred",
      "type": "event"
    },
    {
      "anonymous": false,
      "inputs": [
        {
          "indexed": true,
          "internalType": "address",
          "name": "account",
          "type": "address"
        },
        {
          "indexed": false,
          "internalType": "uint256",
          "name": "share",
          "type": "uint256"
        },
        {
          "indexed": false,
          "internalType": "uint256",
          "name": "round",
          "type": "uint256"
        }
      ],
      "name": "Redeem",
      "type": "event"
    },
    {
      "anonymous": false,
      "inputs": [
        {
          "indexed": true,
          "internalType": "address",
          "name": "from",
          "type": "address"
        },
        {
          "indexed": true,
          "internalType": "address",
          "name": "to",
          "type": "address"
        },
        {
          "indexed": false,
          "internalType": "uint256",
          "name": "value",
          "type": "uint256"
        }
      ],
      "name": "Transfer",
      "type": "event"
    },
    {
      "anonymous": false,
      "inputs": [
        {
          "indexed": false,
          "internalType": "address",
          "name": "account",
          "type": "address"
        },
        {
          "indexed": false,
          "internalType": "uint256",
          "name": "amount",
          "type": "uint256"
        },
        {
          "indexed": false,
          "internalType": "uint256",
          "name": "shares",
          "type": "uint256"
        }
      ],
      "name": "Withdraw",
      "type": "event"
    },
    {
      "inputs": [],
      "name": "USDC",
      "outputs": [
        {
          "internalType": "address",
          "name": "",
          "type": "address"
        }
      ],
      "stateMutability": "view",
      "type": "function"
    },
    {
      "inputs": [],
      "name": "WETH",
      "outputs": [
        {
          "internalType": "address",
          "name": "",
          "type": "address"
        }
      ],
      "stateMutability": "view",
      "type": "function"
    },
    {
      "inputs": [
        {
          "internalType": "address",
          "name": "account",
          "type": "address"
        }
      ],
      "name": "accountVaultBalance",
      "outputs": [
        {
          "internalType": "uint256",
          "name": "",
          "type": "uint256"
        }
      ],
      "stateMutability": "view",
      "type": "function"
    },
    {
      "inputs": [
        {
          "internalType": "address",
          "name": "owner",
          "type": "address"
        },
        {
          "internalType": "address",
          "name": "spender",
          "type": "address"
        }
      ],
      "name": "allowance",
      "outputs": [
        {
          "internalType": "uint256",
          "name": "",
          "type": "uint256"
        }
      ],
      "stateMutability": "view",
      "type": "function"
    },
    {
      "inputs": [
        {
          "internalType": "address",
          "name": "spender",
          "type": "address"
        },
        {
          "internalType": "uint256",
          "name": "amount",
          "type": "uint256"
        }
      ],
      "name": "approve",
      "outputs": [
        {
          "internalType": "bool",
          "name": "",
          "type": "bool"
        }
      ],
      "stateMutability": "nonpayable",
      "type": "function"
    },
    {
      "inputs": [
        {
          "internalType": "address",
          "name": "account",
          "type": "address"
        }
      ],
      "name": "balanceOf",
      "outputs": [
        {
          "internalType": "uint256",
          "name": "",
          "type": "uint256"
        }
      ],
      "stateMutability": "view",
      "type": "function"
    },
    {
      "inputs": [],
      "name": "callSellingVault",
      "outputs": [
        {
          "internalType": "contract IRibbonVault",
          "name": "",
          "type": "address"
        }
      ],
      "stateMutability": "view",
      "type": "function"
    },
    {
      "inputs": [],
      "name": "cap",
      "outputs": [
        {
          "internalType": "uint256",
          "name": "",
          "type": "uint256"
        }
      ],
      "stateMutability": "view",
      "type": "function"
    },
    {
      "inputs": [],
      "name": "completeWithdraw",
      "outputs": [],
      "stateMutability": "nonpayable",
      "type": "function"
    },
    {
      "inputs": [],
      "name": "decimals",
      "outputs": [
        {
          "internalType": "uint8",
          "name": "",
          "type": "uint8"
        }
      ],
      "stateMutability": "view",
      "type": "function"
    },
    {
      "inputs": [
        {
          "internalType": "address",
          "name": "spender",
          "type": "address"
        },
        {
          "internalType": "uint256",
          "name": "subtractedValue",
          "type": "uint256"
        }
      ],
      "name": "decreaseAllowance",
      "outputs": [
        {
          "internalType": "bool",
          "name": "",
          "type": "bool"
        }
      ],
      "stateMutability": "nonpayable",
      "type": "function"
    },
    {
      "inputs": [
        {
          "internalType": "uint256",
          "name": "amount",
          "type": "uint256"
        }
      ],
      "name": "deposit",
      "outputs": [],
      "stateMutability": "nonpayable",
      "type": "function"
    },
    {
      "inputs": [
        {
          "internalType": "uint256",
          "name": "amount",
          "type": "uint256"
        },
        {
          "internalType": "address",
          "name": "creditor",
          "type": "address"
        }
      ],
      "name": "depositFor",
      "outputs": [],
      "stateMutability": "nonpayable",
      "type": "function"
    },
    {
      "inputs": [
        {
          "internalType": "address",
          "name": "",
          "type": "address"
        }
      ],
      "name": "depositReceipts",
      "outputs": [
        {
          "internalType": "uint16",
          "name": "round",
          "type": "uint16"
        },
        {
          "internalType": "uint104",
          "name": "amount",
          "type": "uint104"
        },
        {
          "internalType": "uint128",
          "name": "unredeemedShares",
          "type": "uint128"
        }
      ],
      "stateMutability": "view",
      "type": "function"
    },
    {
      "inputs": [],
      "name": "feeRecipient",
      "outputs": [
        {
          "internalType": "address",
          "name": "",
          "type": "address"
        }
      ],
      "stateMutability": "view",
      "type": "function"
    },
    {
      "inputs": [
        {
          "internalType": "address",
          "name": "spender",
          "type": "address"
        },
        {
          "internalType": "uint256",
          "name": "addedValue",
          "type": "uint256"
        }
      ],
      "name": "increaseAllowance",
      "outputs": [
        {
          "internalType": "bool",
          "name": "",
          "type": "bool"
        }
      ],
      "stateMutability": "nonpayable",
      "type": "function"
    },
    {
      "inputs": [
        {
          "internalType": "uint256",
          "name": "numRounds",
          "type": "uint256"
        }
      ],
      "name": "initRounds",
      "outputs": [],
      "stateMutability": "nonpayable",
      "type": "function"
    },
    {
      "inputs": [
        {
          "internalType": "uint128",
          "name": "shares",
          "type": "uint128"
        }
      ],
      "name": "initiateWithdraw",
      "outputs": [],
      "stateMutability": "nonpayable",
      "type": "function"
    },
    {
      "inputs": [],
      "name": "keeper",
      "outputs": [
        {
          "internalType": "address",
          "name": "",
          "type": "address"
        }
      ],
      "stateMutability": "view",
      "type": "function"
    },
    {
      "inputs": [],
      "name": "managementFee",
      "outputs": [
        {
          "internalType": "uint256",
          "name": "",
          "type": "uint256"
        }
      ],
      "stateMutability": "view",
      "type": "function"
    },
    {
      "inputs": [],
      "name": "maxRedeem",
      "outputs": [],
      "stateMutability": "nonpayable",
      "type": "function"
    },
    {
      "inputs": [],
      "name": "name",
      "outputs": [
        {
          "internalType": "string",
          "name": "",
          "type": "string"
        }
      ],
      "stateMutability": "view",
      "type": "function"
    },
    {
      "inputs": [],
      "name": "owner",
      "outputs": [
        {
          "internalType": "address",
          "name": "",
          "type": "address"
        }
      ],
      "stateMutability": "view",
      "type": "function"
    },
    {
      "inputs": [],
      "name": "performanceFee",
      "outputs": [
        {
          "internalType": "uint256",
          "name": "",
          "type": "uint256"
        }
      ],
      "stateMutability": "view",
      "type": "function"
    },
    {
      "inputs": [],
      "name": "pricePerShare",
      "outputs": [
        {
          "internalType": "uint256",
          "name": "",
          "type": "uint256"
        }
      ],
      "stateMutability": "view",
      "type": "function"
    },
    {
      "inputs": [],
      "name": "putSellingVault",
      "outputs": [
        {
          "internalType": "contract IRibbonVault",
          "name": "",
          "type": "address"
        }
      ],
      "stateMutability": "view",
      "type": "function"
    },
    {
      "inputs": [
        {
          "internalType": "uint256",
          "name": "shares",
          "type": "uint256"
        }
      ],
      "name": "redeem",
      "outputs": [],
      "stateMutability": "nonpayable",
      "type": "function"
    },
    {
      "inputs": [],
      "name": "renounceOwnership",
      "outputs": [],
      "stateMutability": "nonpayable",
      "type": "function"
    },
    {
      "inputs": [],
      "name": "rollVault",
      "outputs": [],
      "stateMutability": "nonpayable",
      "type": "function"
    },
    {
      "inputs": [
        {
          "internalType": "uint256",
          "name": "",
          "type": "uint256"
        }
      ],
      "name": "roundPricePerShare",
      "outputs": [
        {
          "internalType": "uint256",
          "name": "",
          "type": "uint256"
        }
      ],
      "stateMutability": "view",
      "type": "function"
    },
    {
      "inputs": [
        {
          "internalType": "uint256",
          "name": "newCap",
          "type": "uint256"
        }
      ],
      "name": "setCap",
      "outputs": [],
      "stateMutability": "nonpayable",
      "type": "function"
    },
    {
      "inputs": [
        {
          "internalType": "address",
          "name": "newFeeRecipient",
          "type": "address"
        }
      ],
      "name": "setFeeRecipient",
      "outputs": [],
      "stateMutability": "nonpayable",
      "type": "function"
    },
    {
      "inputs": [
        {
          "internalType": "uint256",
          "name": "newManagementFee",
          "type": "uint256"
        }
      ],
      "name": "setManagementFee",
      "outputs": [],
      "stateMutability": "nonpayable",
      "type": "function"
    },
    {
      "inputs": [
        {
          "internalType": "address",
          "name": "newKeeper",
          "type": "address"
        }
      ],
      "name": "setNewKeeper",
      "outputs": [],
      "stateMutability": "nonpayable",
      "type": "function"
    },
    {
      "inputs": [
        {
          "internalType": "uint256",
          "name": "newPerformanceFee",
          "type": "uint256"
        }
      ],
      "name": "setPerformanceFee",
      "outputs": [],
      "stateMutability": "nonpayable",
      "type": "function"
    },
    {
      "inputs": [
        {
          "internalType": "address",
          "name": "account",
          "type": "address"
        }
      ],
      "name": "shareBalances",
      "outputs": [
        {
          "internalType": "uint256",
          "name": "heldByAccount",
          "type": "uint256"
        },
        {
          "internalType": "uint256",
          "name": "heldByVault",
          "type": "uint256"
        }
      ],
      "stateMutability": "view",
      "type": "function"
    },
    {
      "inputs": [
        {
          "internalType": "address",
          "name": "account",
          "type": "address"
        }
      ],
      "name": "shares",
      "outputs": [
        {
          "internalType": "uint256",
          "name": "",
          "type": "uint256"
        }
      ],
      "stateMutability": "view",
      "type": "function"
    },
    {
      "inputs": [],
      "name": "symbol",
      "outputs": [
        {
          "internalType": "string",
          "name": "",
          "type": "string"
        }
      ],
      "stateMutability": "view",
      "type": "function"
    },
    {
      "inputs": [],
      "name": "totalBalance",
      "outputs": [
        {
          "internalType": "uint256",
          "name": "",
          "type": "uint256"
        }
      ],
      "stateMutability": "view",
      "type": "function"
    },
    {
      "inputs": [],
      "name": "totalPending",
      "outputs": [
        {
          "internalType": "uint256",
          "name": "",
          "type": "uint256"
        }
      ],
      "stateMutability": "view",
      "type": "function"
    },
    {
      "inputs": [],
      "name": "totalSupply",
      "outputs": [
        {
          "internalType": "uint256",
          "name": "",
          "type": "uint256"
        }
      ],
      "stateMutability": "view",
      "type": "function"
    },
    {
      "inputs": [
        {
          "internalType": "address",
          "name": "recipient",
          "type": "address"
        },
        {
          "internalType": "uint256",
          "name": "amount",
          "type": "uint256"
        }
      ],
      "name": "transfer",
      "outputs": [
        {
          "internalType": "bool",
          "name": "",
          "type": "bool"
        }
      ],
      "stateMutability": "nonpayable",
      "type": "function"
    },
    {
      "inputs": [
        {
          "internalType": "address",
          "name": "sender",
          "type": "address"
        },
        {
          "internalType": "address",
          "name": "recipient",
          "type": "address"
        },
        {
          "internalType": "uint256",
          "name": "amount",
          "type": "uint256"
        }
      ],
      "name": "transferFrom",
      "outputs": [
        {
          "internalType": "bool",
          "name": "",
          "type": "bool"
        }
      ],
      "stateMutability": "nonpayable",
      "type": "function"
    },
    {
      "inputs": [
        {
          "internalType": "address",
          "name": "newOwner",
          "type": "address"
        }
      ],
      "name": "transferOwnership",
      "outputs": [],
      "stateMutability": "nonpayable",
      "type": "function"
    },
    {
      "inputs": [],
      "name": "vaultParams",
      "outputs": [
        {
          "internalType": "address",
          "name": "asset",
          "type": "address"
        },
        {
          "internalType": "uint8",
          "name": "decimals",
          "type": "uint8"
        },
        {
          "internalType": "uint56",
          "name": "minimumSupply",
          "type": "uint56"
        },
        {
          "internalType": "uint104",
          "name": "cap",
          "type": "uint104"
        }
      ],
      "stateMutability": "view",
      "type": "function"
    },
    {
      "inputs": [],
      "name": "vaultState",
      "outputs": [
        {
          "internalType": "uint16",
          "name": "round",
          "type": "uint16"
        },
        {
          "internalType": "uint104",
          "name": "lockedAmount",
          "type": "uint104"
        },
        {
          "internalType": "uint104",
          "name": "lastLockedAmount",
          "type": "uint104"
        },
        {
          "internalType": "uint128",
          "name": "totalPending",
          "type": "uint128"
        },
        {
          "internalType": "uint128",
          "name": "queuedWithdrawShares",
          "type": "uint128"
        }
      ],
      "stateMutability": "view",
      "type": "function"
    },
    {
      "inputs": [
        {
          "internalType": "uint256",
          "name": "amount",
          "type": "uint256"
        }
      ],
      "name": "withdrawInstantly",
      "outputs": [],
      "stateMutability": "nonpayable",
      "type": "function"
    },
    {
      "inputs": [
        {
          "internalType": "address",
          "name": "",
          "type": "address"
        }
      ],
      "name": "withdrawals",
      "outputs": [
        {
          "internalType": "uint16",
          "name": "round",
          "type": "uint16"
        },
        {
          "internalType": "uint128",
          "name": "shares",
          "type": "uint128"
        }
      ],
      "stateMutability": "view",
      "type": "function"
    }
  ],
  "bytecode": "0x60a06040523480156200001157600080fd5b5060405162007006380380620070068339818101604052810190620000379190620001b4565b600073ffffffffffffffffffffffffffffffffffffffff168273ffffffffffffffffffffffffffffffffffffffff161415620000aa576040517f08c379a0000000000000000000000000000000000000000000000000000000008152600401620000a19062000279565b60405180910390fd5b600073ffffffffffffffffffffffffffffffffffffffff168173ffffffffffffffffffffffffffffffffffffffff1614156200011d576040517f08c379a000000000000000000000000000000000000000000000000000000000815260040162000114906200029b565b60405180910390fd5b8160d460006101000a81548173ffffffffffffffffffffffffffffffffffffffff021916908373ffffffffffffffffffffffffffffffffffffffff1602179055508073ffffffffffffffffffffffffffffffffffffffff1660808173ffffffffffffffffffffffffffffffffffffffff1660601b8152505050506200031c565b600081519050620001ae8162000302565b92915050565b60008060408385031215620001c857600080fd5b6000620001d8858286016200019d565b9250506020620001eb858286016200019d565b9150509250929050565b600062000204600683620002bd565b91507f215f7765746800000000000000000000000000000000000000000000000000006000830152602082019050919050565b600062000246600683620002bd565b91507f215f7573646300000000000000000000000000000000000000000000000000006000830152602082019050919050565b600060208201905081810360008301526200029481620001f5565b9050919050565b60006020820190508181036000830152620002b68162000237565b9050919050565b600082825260208201905092915050565b6000620002db82620002e2565b9050919050565b600073ffffffffffffffffffffffffffffffffffffffff82169050919050565b6200030d81620002ce565b81146200031957600080fd5b50565b60805160601c616ccc6200033a600039806116fa5250616ccc6000f3fe608060405234801561001057600080fd5b50600436106102a05760003560e01c80638778878211610167578063ad7a672f116100ce578063dd62ed3e11610087578063dd62ed3e14610813578063e74b981b14610843578063f2fde38b1461085f578063f656ba511461087b578063f756fa21146108ac578063fe56e232146108b6576102a0565b8063ad7a672f14610753578063b6b55f2514610771578063bb953a931461078d578063ce7c2ac2146107ab578063d164cc15146107db578063db006a75146107f7576102a0565b80639fcc2d75116101205780639fcc2d7514610678578063a457c2d714610699578063a6f7f5d6146106c9578063a9059cbb146106e7578063aced166114610717578063ad5c464814610735576102a0565b806387788782146105c657806389a30271146105e45780638da5cb5b1461060257806395d89b411461062057806399530b061461063e5780639be43daa1461065c576102a0565b80633f90916a1161020b57806370897b23116101c457806370897b231461050557806370a0823114610521578063715018a6146105515780637a9262a21461055b578063864366e21461058c57806387153eb114610596576102a0565b80633f90916a14610455578063469048401461047357806347786d37146104915780635dc25e7b146104ad5780636719b2ee146104c95780636f31ab34146104fb576102a0565b80632775d01c1161025d5780632775d01c14610381578063313ce5671461039d578063355274ea146103bb57806336efd16f146103d957806339509351146103f55780633f23bb7314610425576102a0565b806306fdde03146102a5578063095ea7b3146102c3578063129a2764146102f357806318160ddd1461031157806323b872dd1461032f5780632728f3331461035f575b600080fd5b6102ad6108d2565b6040516102ba919061613a565b60405180910390f35b6102dd60048036038101906102d89190615006565b610974565b6040516102ea9190616104565b60405180910390f35b6102fb610992565b604051610308919061611f565b60405180910390f35b6103196109b8565b604051610326919061676f565b60405180910390f35b61034960048036038101906103449190614fb7565b6109c2565b6040516103569190616104565b60405180910390f35b610367610a9b565b6040516103789594939291906166bc565b60405180910390f35b61039b60048036038101906103969190615094565b610b37565b005b6103a5610c45565b6040516103b29190616830565b60405180910390f35b6103c3610c5f565b6040516103d0919061676f565b60405180910390f35b6103f360048036038101906103ee91906150bd565b610c94565b005b61040f600480360381019061040a9190615006565b610dc6565b60405161041c9190616104565b60405180910390f35b61043f600480360381019061043a9190614f52565b610e79565b60405161044c919061676f565b60405180910390f35b61045d610f38565b60405161046a919061676f565b60405180910390f35b61047b610f73565b6040516104889190615fd6565b60405180910390f35b6104ab60048036038101906104a69190615094565b610f99565b005b6104c760048036038101906104c2919061506b565b61109a565b005b6104e360048036038101906104de9190614f52565b611240565b6040516104f29392919061670f565b60405180910390f35b6105036112ad565b005b61051f600480360381019061051a9190615094565b611310565b005b61053b60048036038101906105369190614f52565b6113dc565b604051610548919061676f565b60405180910390f35b610559611425565b005b61057560048036038101906105709190614f52565b611562565b604051610583929190616746565b60405180910390f35b6105946115b0565b005b6105b060048036038101906105ab9190615094565b6116da565b6040516105bd919061676f565b60405180910390f35b6105ce6116f2565b6040516105db919061676f565b60405180910390f35b6105ec6116f8565b6040516105f99190615fd6565b60405180910390f35b61060a61171c565b6040516106179190615fd6565b60405180910390f35b610628611746565b604051610635919061613a565b60405180910390f35b6106466117e8565b604051610653919061676f565b60405180910390f35b61067660048036038101906106719190615094565b611884565b005b610680611a21565b60405161069094939291906160bf565b60405180910390f35b6106b360048036038101906106ae9190615006565b611a98565b6040516106c09190616104565b60405180910390f35b6106d1611b65565b6040516106de919061676f565b60405180910390f35b61070160048036038101906106fc9190615006565b611b6b565b60405161070e9190616104565b60405180910390f35b61071f611b89565b60405161072c9190615fd6565b60405180910390f35b61073d611baf565b60405161074a9190615fd6565b60405180910390f35b61075b611bd5565b604051610768919061676f565b60405180910390f35b61078b60048036038101906107869190615094565b611bda565b005b610795611cd1565b6040516107a2919061611f565b60405180910390f35b6107c560048036038101906107c09190614f52565b611cf7565b6040516107d2919061676f565b60405180910390f35b6107f560048036038101906107f09190614f52565b611d25565b005b610811600480360381019061080c9190615094565b611e55565b005b61082d60048036038101906108289190614f7b565b611efb565b60405161083a919061676f565b60405180910390f35b61085d60048036038101906108589190614f52565b611f82565b005b61087960048036038101906108749190614f52565b6120b2565b005b61089560048036038101906108909190614f52565b61225e565b6040516108a392919061678a565b60405180910390f35b6108b4612410565b005b6108d060048036038101906108cb9190615094565b612573565b005b6060609a8054600181600116156101000203166002900480601f01602080910402602001604051908101604052809291908181526020018280546001816001161561010002031660029004801561096a5780601f1061093f5761010080835404028352916020019161096a565b820191906000526020600020905b81548152906001019060200180831161094d57829003601f168201915b5050505050905090565b600061098861098161266a565b8484612672565b6001905092915050565b60d660009054906101000a900473ffffffffffffffffffffffffffffffffffffffff1681565b6000609954905090565b60006109cf84848461283d565b610a90846109db61266a565b610a8b85604051806060016040528060288152602001616c4a60289139609860008b73ffffffffffffffffffffffffffffffffffffffff1673ffffffffffffffffffffffffffffffffffffffff1681526020019081526020016000206000610a4161266a565b73ffffffffffffffffffffffffffffffffffffffff1673ffffffffffffffffffffffffffffffffffffffff16815260200190815260200160002054612ad69092919063ffffffff16565b612672565b600190509392505050565b60ce8060000160009054906101000a900461ffff16908060000160029054906101000a90046cffffffffffffffffffffffffff169080600001600f9054906101000a90046cffffffffffffffffffffffffff16908060010160009054906101000a90046fffffffffffffffffffffffffffffffff16908060010160109054906101000a90046fffffffffffffffffffffffffffffffff16905085565b60026001541415610b7d576040517f08c379a0000000000000000000000000000000000000000000000000000000008152600401610b74906165fc565b60405180910390fd5b600260018190555060ce60000160009054906101000a900461ffff1661ffff1660c960003373ffffffffffffffffffffffffffffffffffffffff1673ffffffffffffffffffffffffffffffffffffffff16815260200190815260200160002060000160009054906101000a900461ffff1661ffff1614610c32576040517f08c379a0000000000000000000000000000000000000000000000000000000008152600401610c299061623c565b60405180910390fd5b610c3b81612b2b565b6001808190555050565b600060cc60000160149054906101000a900460ff16905090565b600060cc60010160009054906101000a90046cffffffffffffffffffffffffff166cffffffffffffffffffffffffff16905090565b60026001541415610cda576040517f08c379a0000000000000000000000000000000000000000000000000000000008152600401610cd1906165fc565b60405180910390fd5b600260018190555060008211610d25576040517f08c379a0000000000000000000000000000000000000000000000000000000008152600401610d1c9061657c565b60405180910390fd5b600073ffffffffffffffffffffffffffffffffffffffff168173ffffffffffffffffffffffffffffffffffffffff161415610d5f57600080fd5b610d698282612e16565b610dbb33308460cc60000160009054906101000a900473ffffffffffffffffffffffffffffffffffffffff1673ffffffffffffffffffffffffffffffffffffffff166132c1909392919063ffffffff16565b600180819055505050565b6000610e6f610dd361266a565b84610e6a8560986000610de461266a565b73ffffffffffffffffffffffffffffffffffffffff1673ffffffffffffffffffffffffffffffffffffffff16815260200190815260200160002060008973ffffffffffffffffffffffffffffffffffffffff1673ffffffffffffffffffffffffffffffffffffffff1681526020019081526020016000205461334a90919063ffffffff16565b612672565b6001905092915050565b60008060cc60000160149054906101000a900460ff1690506000610e9c84611cf7565b90506000610f1e610eab6109b8565b610f108560ff16600a0a610f0260ce60010160009054906101000a90046fffffffffffffffffffffffffffffffff166fffffffffffffffffffffffffffffffff16610ef4611bd5565b61339f90919063ffffffff16565b6133ef90919063ffffffff16565b61345f90919063ffffffff16565b9050610f2e82828560ff166134b5565b9350505050919050565b600060ce60010160009054906101000a90046fffffffffffffffffffffffffffffffff166fffffffffffffffffffffffffffffffff16905090565b60d060009054906101000a900473ffffffffffffffffffffffffffffffffffffffff1681565b610fa161266a565b73ffffffffffffffffffffffffffffffffffffffff16610fbf61171c565b73ffffffffffffffffffffffffffffffffffffffff1614611015576040517f08c379a000000000000000000000000000000000000000000000000000000000815260040161100c906163bc565b60405180910390fd5b60008111611058576040517f08c379a000000000000000000000000000000000000000000000000000000000815260040161104f906163dc565b60405180910390fd5b6110618161352b565b8060cc60010160006101000a8154816cffffffffffffffffffffffffff02191690836cffffffffffffffffffffffffff16021790555050565b600260015414156110e0576040517f08c379a00000000000000000000000000000000000000000000000000000000081526004016110d7906165fc565b60405180910390fd5b600260018190555060006111106002836fffffffffffffffffffffffffffffffff1661345f90919063ffffffff16565b905060d560009054906101000a900473ffffffffffffffffffffffffffffffffffffffff1673ffffffffffffffffffffffffffffffffffffffff16635dc25e7b826040518263ffffffff1660e01b815260040161116d91906166a1565b600060405180830381600087803b15801561118757600080fd5b505af115801561119b573d6000803e3d6000fd5b5050505060d660009054906101000a900473ffffffffffffffffffffffffffffffffffffffff1673ffffffffffffffffffffffffffffffffffffffff16635dc25e7b826040518263ffffffff1660e01b81526004016111fa91906166a1565b600060405180830381600087803b15801561121457600080fd5b505af1158015611228573d6000803e3d6000fd5b5050505061123582613580565b506001808190555050565b60c96020528060005260406000206000915090508060000160009054906101000a900461ffff16908060000160029054906101000a90046cffffffffffffffffffffffffff169080600001600f9054906101000a90046fffffffffffffffffffffffffffffffff16905083565b600260015414156112f3576040517f08c379a00000000000000000000000000000000000000000000000000000000081526004016112ea906165fc565b60405180910390fd5b600260018190555061130760006001613aa1565b60018081905550565b61131861266a565b73ffffffffffffffffffffffffffffffffffffffff1661133661171c565b73ffffffffffffffffffffffffffffffffffffffff161461138c576040517f08c379a0000000000000000000000000000000000000000000000000000000008152600401611383906163bc565b60405180910390fd5b6305f5e10081106113d2576040517f08c379a00000000000000000000000000000000000000000000000000000000081526004016113c99061641c565b60405180910390fd5b8060d28190555050565b6000609760008373ffffffffffffffffffffffffffffffffffffffff1673ffffffffffffffffffffffffffffffffffffffff168152602001908152602001600020549050919050565b61142d61266a565b73ffffffffffffffffffffffffffffffffffffffff1661144b61171c565b73ffffffffffffffffffffffffffffffffffffffff16146114a1576040517f08c379a0000000000000000000000000000000000000000000000000000000008152600401611498906163bc565b60405180910390fd5b600073ffffffffffffffffffffffffffffffffffffffff16606560009054906101000a900473ffffffffffffffffffffffffffffffffffffffff1673ffffffffffffffffffffffffffffffffffffffff167f8be0079c531659141344cd1fd0a4f28419497f9722a3daafe3b4186f6b6457e060405160405180910390a36000606560006101000a81548173ffffffffffffffffffffffffffffffffffffffff021916908373ffffffffffffffffffffffffffffffffffffffff160217905550565b60cb6020528060005260406000206000915090508060000160009054906101000a900461ffff16908060000160029054906101000a90046fffffffffffffffffffffffffffffffff16905082565b60d160009054906101000a900473ffffffffffffffffffffffffffffffffffffffff1673ffffffffffffffffffffffffffffffffffffffff163373ffffffffffffffffffffffffffffffffffffffff1614611640576040517f08c379a00000000000000000000000000000000000000000000000000000000081526004016116379061635c565b60405180910390fd5b60026001541415611686576040517f08c379a000000000000000000000000000000000000000000000000000000000815260040161167d906165fc565b60405180910390fd5b60026001819055506000611698613e3f565b90508060ce60000160026101000a8154816cffffffffffffffffffffffffff02191690836cffffffffffffffffffffffffff1602179055505060018081905550565b60ca6020528060005260406000206000915090505481565b60d25481565b7f000000000000000000000000000000000000000000000000000000000000000081565b6000606560009054906101000a900473ffffffffffffffffffffffffffffffffffffffff16905090565b6060609b8054600181600116156101000203166002900480601f0160208091040260200160405190810160405280929190818152602001828054600181600116156101000203166002900480156117de5780601f106117b3576101008083540402835291602001916117de565b820191906000526020600020905b8154815290600101906020018083116117c157829003601f168201915b5050505050905090565b60008061183860ce60010160009054906101000a90046fffffffffffffffffffffffffffffffff166fffffffffffffffffffffffffffffffff1661182a611bd5565b61339f90919063ffffffff16565b905061187e6118456109b8565b6118708360cc60000160149054906101000a900460ff1660ff16600a0a6133ef90919063ffffffff16565b61345f90919063ffffffff16565b91505090565b600260015414156118ca576040517f08c379a00000000000000000000000000000000000000000000000000000000081526004016118c1906165fc565b60405180910390fd5b600260018190555060348110611915576040517f08c379a000000000000000000000000000000000000000000000000000000000815260040161190c9061631c565b60405180910390fd5b600060ce60000160009054906101000a900461ffff1661ffff16905060005b82811015611a15576000818301905082811015611986576040517f08c379a000000000000000000000000000000000000000000000000000000000815260040161197d9061617c565b60405180910390fd5b600060ca600083815260200190815260200160002054146119dc576040517f08c379a00000000000000000000000000000000000000000000000000000000081526004016119d39061655c565b60405180910390fd5b60016fffffffffffffffffffffffffffffffff1660ca600083815260200190815260200160002081905550508080600101915050611934565b50506001808190555050565b60cc8060000160009054906101000a900473ffffffffffffffffffffffffffffffffffffffff16908060000160149054906101000a900460ff16908060000160159054906101000a900466ffffffffffffff16908060010160009054906101000a90046cffffffffffffffffffffffffff16905084565b6000611b5b611aa561266a565b84611b5685604051806060016040528060258152602001616c726025913960986000611acf61266a565b73ffffffffffffffffffffffffffffffffffffffff1673ffffffffffffffffffffffffffffffffffffffff16815260200190815260200160002060008a73ffffffffffffffffffffffffffffffffffffffff1673ffffffffffffffffffffffffffffffffffffffff16815260200190815260200160002054612ad69092919063ffffffff16565b612672565b6001905092915050565b60d35481565b6000611b7f611b7861266a565b848461283d565b6001905092915050565b60d160009054906101000a900473ffffffffffffffffffffffffffffffffffffffff1681565b60d460009054906101000a900473ffffffffffffffffffffffffffffffffffffffff1681565b600090565b60026001541415611c20576040517f08c379a0000000000000000000000000000000000000000000000000000000008152600401611c17906165fc565b60405180910390fd5b600260018190555060008111611c6b576040517f08c379a0000000000000000000000000000000000000000000000000000000008152600401611c629061657c565b60405180910390fd5b611c758133612e16565b611cc733308360cc60000160009054906101000a900473ffffffffffffffffffffffffffffffffffffffff1673ffffffffffffffffffffffffffffffffffffffff166132c1909392919063ffffffff16565b6001808190555050565b60d560009054906101000a900473ffffffffffffffffffffffffffffffffffffffff1681565b6000806000611d058461225e565b91509150611d1c8183613fe890919063ffffffff16565b92505050919050565b611d2d61266a565b73ffffffffffffffffffffffffffffffffffffffff16611d4b61171c565b73ffffffffffffffffffffffffffffffffffffffff1614611da1576040517f08c379a0000000000000000000000000000000000000000000000000000000008152600401611d98906163bc565b60405180910390fd5b600073ffffffffffffffffffffffffffffffffffffffff168173ffffffffffffffffffffffffffffffffffffffff161415611e11576040517f08c379a0000000000000000000000000000000000000000000000000000000008152600401611e08906165dc565b60405180910390fd5b8060d160006101000a81548173ffffffffffffffffffffffffffffffffffffffff021916908373ffffffffffffffffffffffffffffffffffffffff16021790555050565b60026001541415611e9b576040517f08c379a0000000000000000000000000000000000000000000000000000000008152600401611e92906165fc565b60405180910390fd5b600260018190555060008111611ee6576040517f08c379a0000000000000000000000000000000000000000000000000000000008152600401611edd9061643c565b60405180910390fd5b611ef1816000613aa1565b6001808190555050565b6000609860008473ffffffffffffffffffffffffffffffffffffffff1673ffffffffffffffffffffffffffffffffffffffff16815260200190815260200160002060008373ffffffffffffffffffffffffffffffffffffffff1673ffffffffffffffffffffffffffffffffffffffff16815260200190815260200160002054905092915050565b611f8a61266a565b73ffffffffffffffffffffffffffffffffffffffff16611fa861171c565b73ffffffffffffffffffffffffffffffffffffffff1614611ffe576040517f08c379a0000000000000000000000000000000000000000000000000000000008152600401611ff5906163bc565b60405180910390fd5b600073ffffffffffffffffffffffffffffffffffffffff168173ffffffffffffffffffffffffffffffffffffffff16141561206e576040517f08c379a00000000000000000000000000000000000000000000000000000000081526004016120659061633c565b60405180910390fd5b8060d060006101000a81548173ffffffffffffffffffffffffffffffffffffffff021916908373ffffffffffffffffffffffffffffffffffffffff16021790555050565b6120ba61266a565b73ffffffffffffffffffffffffffffffffffffffff166120d861171c565b73ffffffffffffffffffffffffffffffffffffffff161461212e576040517f08c379a0000000000000000000000000000000000000000000000000000000008152600401612125906163bc565b60405180910390fd5b600073ffffffffffffffffffffffffffffffffffffffff168173ffffffffffffffffffffffffffffffffffffffff16141561219e576040517f08c379a0000000000000000000000000000000000000000000000000000000008152600401612195906161bc565b60405180910390fd5b8073ffffffffffffffffffffffffffffffffffffffff16606560009054906101000a900473ffffffffffffffffffffffffffffffffffffffff1673ffffffffffffffffffffffffffffffffffffffff167f8be0079c531659141344cd1fd0a4f28419497f9722a3daafe3b4186f6b6457e060405160405180910390a380606560006101000a81548173ffffffffffffffffffffffffffffffffffffffff021916908373ffffffffffffffffffffffffffffffffffffffff16021790555050565b600080612269614ea3565b60c960008573ffffffffffffffffffffffffffffffffffffffff1673ffffffffffffffffffffffffffffffffffffffff1681526020019081526020016000206040518060600160405290816000820160009054906101000a900461ffff1661ffff1661ffff1681526020016000820160029054906101000a90046cffffffffffffffffffffffffff166cffffffffffffffffffffffffff166cffffffffffffffffffffffffff16815260200160008201600f9054906101000a90046fffffffffffffffffffffffffffffffff166fffffffffffffffffffffffffffffffff166fffffffffffffffffffffffffffffffff1681525050905060016fffffffffffffffffffffffffffffffff16816000015161ffff1610156123985761238c846113dc565b6000925092505061240b565b60006123f860ce60000160009054906101000a900461ffff1661ffff1660ca6000856000015161ffff1681526020019081526020016000205460cc60000160149054906101000a900460ff1660ff168561403d909392919063ffffffff16565b9050612403856113dc565b819350935050505b915091565b60026001541415612456576040517f08c379a000000000000000000000000000000000000000000000000000000000815260040161244d906165fc565b60405180910390fd5b600260018190555060d560009054906101000a900473ffffffffffffffffffffffffffffffffffffffff1673ffffffffffffffffffffffffffffffffffffffff1663f756fa216040518163ffffffff1660e01b8152600401600060405180830381600087803b1580156124c857600080fd5b505af11580156124dc573d6000803e3d6000fd5b5050505060d660009054906101000a900473ffffffffffffffffffffffffffffffffffffffff1673ffffffffffffffffffffffffffffffffffffffff1663f756fa216040518163ffffffff1660e01b8152600401600060405180830381600087803b15801561254a57600080fd5b505af115801561255e573d6000803e3d6000fd5b5050505061256a6140d7565b60018081905550565b61257b61266a565b73ffffffffffffffffffffffffffffffffffffffff1661259961171c565b73ffffffffffffffffffffffffffffffffffffffff16146125ef576040517f08c379a00000000000000000000000000000000000000000000000000000000081526004016125e6906163bc565b60405180910390fd5b6305f5e1008110612635576040517f08c379a000000000000000000000000000000000000000000000000000000000815260040161262c9061647c565b60405180910390fd5b61266163031ba309612653620f4240846133ef90919063ffffffff16565b61345f90919063ffffffff16565b60d38190555050565b600033905090565b600073ffffffffffffffffffffffffffffffffffffffff168373ffffffffffffffffffffffffffffffffffffffff1614156126e2576040517f08c379a00000000000000000000000000000000000000000000000000000000081526004016126d9906164fc565b60405180910390fd5b600073ffffffffffffffffffffffffffffffffffffffff168273ffffffffffffffffffffffffffffffffffffffff161415612752576040517f08c379a0000000000000000000000000000000000000000000000000000000008152600401612749906161dc565b60405180910390fd5b80609860008573ffffffffffffffffffffffffffffffffffffffff1673ffffffffffffffffffffffffffffffffffffffff16815260200190815260200160002060008473ffffffffffffffffffffffffffffffffffffffff1673ffffffffffffffffffffffffffffffffffffffff168152602001908152602001600020819055508173ffffffffffffffffffffffffffffffffffffffff168373ffffffffffffffffffffffffffffffffffffffff167f8c5be1e5ebec7d5bd14f71427d1e84f3dd0314c0f7b2291e5b200ac8c7c3b92583604051612830919061676f565b60405180910390a3505050565b600073ffffffffffffffffffffffffffffffffffffffff168373ffffffffffffffffffffffffffffffffffffffff1614156128ad576040517f08c379a00000000000000000000000000000000000000000000000000000000081526004016128a49061649c565b60405180910390fd5b600073ffffffffffffffffffffffffffffffffffffffff168273ffffffffffffffffffffffffffffffffffffffff16141561291d576040517f08c379a00000000000000000000000000000000000000000000000000000000081526004016129149061615c565b60405180910390fd5b61292883838361442b565b61299481604051806060016040528060268152602001616c2460269139609760008773ffffffffffffffffffffffffffffffffffffffff1673ffffffffffffffffffffffffffffffffffffffff16815260200190815260200160002054612ad69092919063ffffffff16565b609760008573ffffffffffffffffffffffffffffffffffffffff1673ffffffffffffffffffffffffffffffffffffffff16815260200190815260200160002081905550612a2981609760008573ffffffffffffffffffffffffffffffffffffffff1673ffffffffffffffffffffffffffffffffffffffff1681526020019081526020016000205461334a90919063ffffffff16565b609760008473ffffffffffffffffffffffffffffffffffffffff1673ffffffffffffffffffffffffffffffffffffffff168152602001908152602001600020819055508173ffffffffffffffffffffffffffffffffffffffff168373ffffffffffffffffffffffffffffffffffffffff167fddf252ad1be2c89b69c2b068fc378daa952ba7f163c4a11628f55a4df523b3ef83604051612ac9919061676f565b60405180910390a3505050565b6000838311158290612b1e576040517f08c379a0000000000000000000000000000000000000000000000000000000008152600401612b15919061613a565b60405180910390fd5b5082840390509392505050565b60026001541415612b71576040517f08c379a0000000000000000000000000000000000000000000000000000000008152600401612b68906165fc565b60405180910390fd5b6002600181905550600060c960003373ffffffffffffffffffffffffffffffffffffffff1673ffffffffffffffffffffffffffffffffffffffff1681526020019081526020016000209050600060ce60000160009054906101000a900461ffff1661ffff16905060008311612c1b576040517f08c379a0000000000000000000000000000000000000000000000000000000008152600401612c129061657c565b60405180910390fd5b808260000160009054906101000a900461ffff1661ffff1614612c73576040517f08c379a0000000000000000000000000000000000000000000000000000000008152600401612c6a9061623c565b60405180910390fd5b60008260000160029054906101000a90046cffffffffffffffffffffffffff166cffffffffffffffffffffffffff16905083811015612ce7576040517f08c379a0000000000000000000000000000000000000000000000000000000008152600401612cde906164bc565b60405180910390fd5b612cfa848261339f90919063ffffffff16565b8360000160026101000a8154816cffffffffffffffffffffffffff02191690836cffffffffffffffffffffffffff160217905550612d748460ce60010160009054906101000a90046fffffffffffffffffffffffffffffffff166fffffffffffffffffffffffffffffffff1661339f90919063ffffffff16565b60ce60010160006101000a8154816fffffffffffffffffffffffffffffffff02191690836fffffffffffffffffffffffffffffffff1602179055503373ffffffffffffffffffffffffffffffffffffffff167fab2daf3c146ca6416cbccd2a86ed2ba995e171ef6319df14a38aef01403a9c968584604051612df792919061678a565b60405180910390a2612e093385614430565b5050506001808190555050565b600060ce60000160009054906101000a900461ffff1661ffff1690506000612e4e84612e40611bd5565b613fe890919063ffffffff16565b905060cc60010160009054906101000a90046cffffffffffffffffffffffffff166cffffffffffffffffffffffffff16811115612ec0576040517f08c379a0000000000000000000000000000000000000000000000000000000008152600401612eb79061619c565b60405180910390fd5b60cc60000160159054906101000a900466ffffffffffffff1666ffffffffffffff16811015612f24576040517f08c379a0000000000000000000000000000000000000000000000000000000008152600401612f1b9061625c565b60405180910390fd5b8273ffffffffffffffffffffffffffffffffffffffff167f90890809c654f11d6e72a28fa60149770a0d11ec6c92319d6ceb2bb0a4ea1a158584604051612f6c92919061678a565b60405180910390a2612f7c614ea3565b60c960008573ffffffffffffffffffffffffffffffffffffffff1673ffffffffffffffffffffffffffffffffffffffff1681526020019081526020016000206040518060600160405290816000820160009054906101000a900461ffff1661ffff1661ffff1681526020016000820160029054906101000a90046cffffffffffffffffffffffffff166cffffffffffffffffffffffffff166cffffffffffffffffffffffffff16815260200160008201600f9054906101000a90046fffffffffffffffffffffffffffffffff166fffffffffffffffffffffffffffffffff166fffffffffffffffffffffffffffffffff1681525050905060006130bc8460ca6000856000015161ffff1681526020019081526020016000205460cc60000160149054906101000a900460ff1660ff168561403d909392919063ffffffff16565b90506000869050826000015161ffff168514156131025760006130fb8885602001516cffffffffffffffffffffffffff16613fe890919063ffffffff16565b9050809150505b61310b8161352b565b60405180606001604052808661ffff168152602001826cffffffffffffffffffffffffff168152602001836cffffffffffffffffffffffffff166fffffffffffffffffffffffffffffffff1681525060c960008873ffffffffffffffffffffffffffffffffffffffff1673ffffffffffffffffffffffffffffffffffffffff16815260200190815260200160002060008201518160000160006101000a81548161ffff021916908361ffff16021790555060208201518160000160026101000a8154816cffffffffffffffffffffffffff02191690836cffffffffffffffffffffffffff160217905550604082015181600001600f6101000a8154816fffffffffffffffffffffffffffffffff02191690836fffffffffffffffffffffffffffffffff16021790555090505061327d8760ce60010160009054906101000a90046fffffffffffffffffffffffffffffffff166fffffffffffffffffffffffffffffffff16613fe890919063ffffffff16565b60ce60010160006101000a8154816fffffffffffffffffffffffffffffffff02191690836fffffffffffffffffffffffffffffffff16021790555050505050505050565b613344846323b872dd60e01b8585856040516024016132e29392919061605f565b604051602081830303815290604052907bffffffffffffffffffffffffffffffffffffffffffffffffffffffff19166020820180517bffffffffffffffffffffffffffffffffffffffffffffffffffffffff8381831617835250505050614621565b50505050565b600080828401905083811015613395576040517f08c379a000000000000000000000000000000000000000000000000000000000815260040161338c906161fc565b60405180910390fd5b8091505092915050565b6000828211156133e4576040517f08c379a00000000000000000000000000000000000000000000000000000000081526004016133db9061627c565b60405180910390fd5b818303905092915050565b6000808314156134025760009050613459565b600082840290508284828161341357fe5b0414613454576040517f08c379a000000000000000000000000000000000000000000000000000000000815260040161344b9061637c565b60405180910390fd5b809150505b92915050565b60008082116134a3576040517f08c379a000000000000000000000000000000000000000000000000000000000815260040161349a906162dc565b60405180910390fd5b8183816134ac57fe5b04905092915050565b6000600183116134fa576040517f08c379a00000000000000000000000000000000000000000000000000000000081526004016134f19061659c565b60405180910390fd5b61352282600a0a61351485876133ef90919063ffffffff16565b61345f90919063ffffffff16565b90509392505050565b6cffffffffffffffffffffffffff801681111561357d576040517f08c379a0000000000000000000000000000000000000000000000000000000008152600401613574906163fc565b60405180910390fd5b50565b600260015414156135c6576040517f08c379a00000000000000000000000000000000000000000000000000000000081526004016135bd906165fc565b60405180910390fd5b60026001819055506000816fffffffffffffffffffffffffffffffff1611613623576040517f08c379a000000000000000000000000000000000000000000000000000000000815260040161361a9061643c565b60405180910390fd5b600060c960003373ffffffffffffffffffffffffffffffffffffffff1673ffffffffffffffffffffffffffffffffffffffff16815260200190815260200160002060000160029054906101000a90046cffffffffffffffffffffffffff166cffffffffffffffffffffffffff16118061370c5750600060c960003373ffffffffffffffffffffffffffffffffffffffff1673ffffffffffffffffffffffffffffffffffffffff168152602001908152602001600020600001600f9054906101000a90046fffffffffffffffffffffffffffffffff166fffffffffffffffffffffffffffffffff16115b1561371e5761371d60006001613aa1565b5b600060ce60000160009054906101000a900461ffff1661ffff169050600060cb60003373ffffffffffffffffffffffffffffffffffffffff1673ffffffffffffffffffffffffffffffffffffffff16815260200190815260200160002090506000828260000160009054906101000a900461ffff1661ffff161490507f0c53c82ad07e2d592d88ece3b066777dd60f1118e2a081b380efc4358f0d9e2a3385856040516137cd93929190615ff1565b60405180910390a160008260000160029054906101000a90046fffffffffffffffffffffffffffffffff166fffffffffffffffffffffffffffffffff16905081156138c3576000613839866fffffffffffffffffffffffffffffffff1683613fe890919063ffffffff16565b9050613844816146e8565b8060cb60003373ffffffffffffffffffffffffffffffffffffffff1673ffffffffffffffffffffffffffffffffffffffff16815260200190815260200160002060000160026101000a8154816fffffffffffffffffffffffffffffffff02191690836fffffffffffffffffffffffffffffffff160217905550506139e3565b60008114156139a7578460cb60003373ffffffffffffffffffffffffffffffffffffffff1673ffffffffffffffffffffffffffffffffffffffff16815260200190815260200160002060000160026101000a8154816fffffffffffffffffffffffffffffffff02191690836fffffffffffffffffffffffffffffffff1602179055508360cb60003373ffffffffffffffffffffffffffffffffffffffff1673ffffffffffffffffffffffffffffffffffffffff16815260200190815260200160002060000160006101000a81548161ffff021916908361ffff1602179055506139e2565b6040517f08c379a00000000000000000000000000000000000000000000000000000000081526004016139d9906164dc565b60405180910390fd5b5b613a3b856fffffffffffffffffffffffffffffffff1660ce60010160109054906101000a90046fffffffffffffffffffffffffffffffff166fffffffffffffffffffffffffffffffff16613fe890919063ffffffff16565b60ce60010160106101000a8154816fffffffffffffffffffffffffffffffff02191690836fffffffffffffffffffffffffffffffff160217905550613a933330876fffffffffffffffffffffffffffffffff1661283d565b505050506001808190555050565b613aaa826146e8565b600060c960003373ffffffffffffffffffffffffffffffffffffffff1673ffffffffffffffffffffffffffffffffffffffff1681526020019081526020016000209050600060ce60000160009054906101000a900461ffff1661ffff16905060008260000160009054906101000a900461ffff1661ffff1690506000613c1b8360ca60008581526020019081526020016000205460cc60000160149054906101000a900460ff1660ff16876040518060600160405290816000820160009054906101000a900461ffff1661ffff1661ffff1681526020016000820160029054906101000a90046cffffffffffffffffffffffffff166cffffffffffffffffffffffffff166cffffffffffffffffffffffffff16815260200160008201600f9054906101000a90046fffffffffffffffffffffffffffffffff166fffffffffffffffffffffffffffffffff166fffffffffffffffffffffffffffffffff168152505061403d909392919063ffffffff16565b905084613c285785613c2a565b805b955060008611613c6f576040517f08c379a0000000000000000000000000000000000000000000000000000000008152600401613c669061643c565b60405180910390fd5b80861115613cb2576040517f08c379a0000000000000000000000000000000000000000000000000000000008152600401613ca99061621c565b60405180910390fd5b828210613cdc578360000160029054906101000a90046cffffffffffffffffffffffffff16613cdf565b60005b60c960003373ffffffffffffffffffffffffffffffffffffffff1673ffffffffffffffffffffffffffffffffffffffff16815260200190815260200160002060000160026101000a8154816cffffffffffffffffffffffffff02191690836cffffffffffffffffffffffffff160217905550613d64868261339f90919063ffffffff16565b60c960003373ffffffffffffffffffffffffffffffffffffffff1673ffffffffffffffffffffffffffffffffffffffff168152602001908152602001600020600001600f6101000a8154816fffffffffffffffffffffffffffffffff02191690836fffffffffffffffffffffffffffffffff1602179055503373ffffffffffffffffffffffffffffffffffffffff167fe5b754fb1abb7f01b499791d0b820ae3b6af3424ac1c59768edb53f4ec31a9298784604051613e2492919061678a565b60405180910390a2613e3730338861283d565b505050505050565b600080600080600073__$b8dfdbe756a4d5d6fec849b930740a032a$__63c29d2a3c613e696109b8565b613e71611bd5565b60cc60ce6040518563ffffffff1660e01b8152600401613e9494939291906167b3565b60806040518083038186803b158015613eac57600080fd5b505af4158015613ec0573d6000803e3d6000fd5b505050506040513d601f19601f82011682018060405250810190613ee49190615148565b9350935093509350600060ce60000160009054906101000a900461ffff1661ffff1690508260ca600083815260200190815260200160002081905550613f3b613f2c86614740565b8661339f90919063ffffffff16565b9450600060ce60010160006101000a8154816fffffffffffffffffffffffffffffffff02191690836fffffffffffffffffffffffffffffffff1602179055506001810160ce60000160006101000a81548161ffff021916908361ffff1602179055508460ce60000160026101000a8154816cffffffffffffffffffffffffff02191690836cffffffffffffffffffffffffff160217905550613fdd308361486a565b839550505050505090565b600080828401905083811015614033576040517f08c379a000000000000000000000000000000000000000000000000000000000815260040161402a906161fc565b60405180910390fd5b8091505092915050565b600080856000015161ffff1611801561405d575083856000015161ffff16105b156140b557600061408286602001516cffffffffffffffffffffffffff168585614a00565b90506140ad8187604001516fffffffffffffffffffffffffffffffff16613fe890919063ffffffff16565b9150506140cf565b84604001516fffffffffffffffffffffffffffffffff1690505b949350505050565b6002600154141561411d576040517f08c379a0000000000000000000000000000000000000000000000000000000008152600401614114906165fc565b60405180910390fd5b6002600181905550600060cb60003373ffffffffffffffffffffffffffffffffffffffff1673ffffffffffffffffffffffffffffffffffffffff168152602001908152602001600020905060008160000160029054906101000a90046fffffffffffffffffffffffffffffffff166fffffffffffffffffffffffffffffffff16905060008260000160009054906101000a900461ffff1661ffff169050600082116141fd576040517f08c379a00000000000000000000000000000000000000000000000000000000081526004016141f49061639c565b60405180910390fd5b60ce60000160009054906101000a900461ffff1661ffff168110614256576040517f08c379a000000000000000000000000000000000000000000000000000000000815260040161424d9061629c565b60405180910390fd5b600060cb60003373ffffffffffffffffffffffffffffffffffffffff1673ffffffffffffffffffffffffffffffffffffffff16815260200190815260200160002060000160026101000a8154816fffffffffffffffffffffffffffffffff02191690836fffffffffffffffffffffffffffffffff1602179055506143168260ce60010160109054906101000a90046fffffffffffffffffffffffffffffffff166fffffffffffffffffffffffffffffffff1661339f90919063ffffffff16565b60ce60010160106101000a8154816fffffffffffffffffffffffffffffffff02191690836fffffffffffffffffffffffffffffffff160217905550600061438a8360ca60008561ffff1681526020019081526020016000205460cc60000160149054906101000a900460ff1660ff166134b5565b90507ff279e6a1f5e320cca91135676d9cb6e44ca8a08c0b88342bcdb1144f6511b5683382856040516143bf93929190616028565b60405180910390a16143d13084614a76565b60008111614414576040517f08c379a000000000000000000000000000000000000000000000000000000000815260040161440b9061661c565b60405180910390fd5b61441e3382614430565b5050505060018081905550565b505050565b600060cc60000160009054906101000a900473ffffffffffffffffffffffffffffffffffffffff16905060d460009054906101000a900473ffffffffffffffffffffffffffffffffffffffff1673ffffffffffffffffffffffffffffffffffffffff168173ffffffffffffffffffffffffffffffffffffffff1614156145f05760d460009054906101000a900473ffffffffffffffffffffffffffffffffffffffff1673ffffffffffffffffffffffffffffffffffffffff16632e1a7d4d836040518263ffffffff1660e01b815260040161450b919061676f565b600060405180830381600087803b15801561452557600080fd5b505af1158015614539573d6000803e3d6000fd5b5050505060008373ffffffffffffffffffffffffffffffffffffffff168360405161456390615fc1565b60006040518083038185875af1925050503d80600081146145a0576040519150601f19603f3d011682016040523d82523d6000602084013e6145a5565b606091505b50509050806145e9576040517f08c379a00000000000000000000000000000000000000000000000000000000081526004016145e0906162fc565b60405180910390fd5b505061461d565b61461b83838373ffffffffffffffffffffffffffffffffffffffff16614c269092919063ffffffff16565b505b5050565b6060614683826040518060400160405280602081526020017f5361666545524332303a206c6f772d6c6576656c2063616c6c206661696c65648152508573ffffffffffffffffffffffffffffffffffffffff16614cac9092919063ffffffff16565b90506000815111156146e357808060200190518101906146a39190615042565b6146e2576040517f08c379a00000000000000000000000000000000000000000000000000000000081526004016146d9906165bc565b60405180910390fd5b5b505050565b6fffffffffffffffffffffffffffffffff801681111561473d576040517f08c379a00000000000000000000000000000000000000000000000000000000081526004016147349061653c565b60405180910390fd5b50565b600080600073__$b8dfdbe756a4d5d6fec849b930740a032a$__63d38e319760ce8660d25460d3546040518563ffffffff1660e01b8152600401614787949392919061665c565b60606040518083038186803b15801561479f57600080fd5b505af41580156147b3573d6000803e3d6000fd5b505050506040513d601f19601f820116820180604052508101906147d791906150f9565b925050915060008111156148605761481160d060009054906101000a900473ffffffffffffffffffffffffffffffffffffffff1682614430565b7fada62e8302f1310b252c959c188269b9a41b22ae1730d21f69eec09488dee144828260ce60000160009054906101000a900461ffff16604051614857939291906167f9565b60405180910390a15b8092505050919050565b600073ffffffffffffffffffffffffffffffffffffffff168273ffffffffffffffffffffffffffffffffffffffff1614156148da576040517f08c379a00000000000000000000000000000000000000000000000000000000081526004016148d19061663c565b60405180910390fd5b6148e66000838361442b565b6148fb8160995461334a90919063ffffffff16565b60998190555061495381609760008573ffffffffffffffffffffffffffffffffffffffff1673ffffffffffffffffffffffffffffffffffffffff1681526020019081526020016000205461334a90919063ffffffff16565b609760008473ffffffffffffffffffffffffffffffffffffffff1673ffffffffffffffffffffffffffffffffffffffff168152602001908152602001600020819055508173ffffffffffffffffffffffffffffffffffffffff16600073ffffffffffffffffffffffffffffffffffffffff167fddf252ad1be2c89b69c2b068fc378daa952ba7f163c4a11628f55a4df523b3ef836040516149f4919061676f565b60405180910390a35050565b600060018311614a45576040517f08c379a0000000000000000000000000000000000000000000000000000000008152600401614a3c9061659c565b60405180910390fd5b614a6d83614a5f84600a0a876133ef90919063ffffffff16565b61345f90919063ffffffff16565b90509392505050565b600073ffffffffffffffffffffffffffffffffffffffff168273ffffffffffffffffffffffffffffffffffffffff161415614ae6576040517f08c379a0000000000000000000000000000000000000000000000000000000008152600401614add9061645c565b60405180910390fd5b614af28260008361442b565b614b5e81604051806060016040528060228152602001616c0260229139609760008673ffffffffffffffffffffffffffffffffffffffff1673ffffffffffffffffffffffffffffffffffffffff16815260200190815260200160002054612ad69092919063ffffffff16565b609760008473ffffffffffffffffffffffffffffffffffffffff1673ffffffffffffffffffffffffffffffffffffffff16815260200190815260200160002081905550614bb681609954614cc490919063ffffffff16565b609981905550600073ffffffffffffffffffffffffffffffffffffffff168273ffffffffffffffffffffffffffffffffffffffff167fddf252ad1be2c89b69c2b068fc378daa952ba7f163c4a11628f55a4df523b3ef83604051614c1a919061676f565b60405180910390a35050565b614ca78363a9059cbb60e01b8484604051602401614c45929190616096565b604051602081830303815290604052907bffffffffffffffffffffffffffffffffffffffffffffffffffffffff19166020820180517bffffffffffffffffffffffffffffffffffffffffffffffffffffffff8381831617835250505050614621565b505050565b6060614cbb8484600085614d14565b90509392505050565b600082821115614d09576040517f08c379a0000000000000000000000000000000000000000000000000000000008152600401614d009061627c565b60405180910390fd5b818303905092915050565b606082471015614d59576040517f08c379a0000000000000000000000000000000000000000000000000000000008152600401614d50906162bc565b60405180910390fd5b614d6285614e29565b614da1576040517f08c379a0000000000000000000000000000000000000000000000000000000008152600401614d989061651c565b60405180910390fd5b600060608673ffffffffffffffffffffffffffffffffffffffff168587604051614dcb9190615faa565b60006040518083038185875af1925050503d8060008114614e08576040519150601f19603f3d011682016040523d82523d6000602084013e614e0d565b606091505b5091509150614e1d828286614e3c565b92505050949350505050565b600080823b905060008111915050919050565b60608315614e4c57829050614e9c565b600083511115614e5f5782518084602001fd5b816040517f08c379a0000000000000000000000000000000000000000000000000000000008152600401614e93919061613a565b60405180910390fd5b9392505050565b6040518060600160405280600061ffff16815260200160006cffffffffffffffffffffffffff16815260200160006fffffffffffffffffffffffffffffffff1681525090565b600081359050614ef881616ba5565b92915050565b600081519050614f0d81616bbc565b92915050565b600081359050614f2281616bd3565b92915050565b600081359050614f3781616bea565b92915050565b600081519050614f4c81616bea565b92915050565b600060208284031215614f6457600080fd5b6000614f7284828501614ee9565b91505092915050565b60008060408385031215614f8e57600080fd5b6000614f9c85828601614ee9565b9250506020614fad85828601614ee9565b9150509250929050565b600080600060608486031215614fcc57600080fd5b6000614fda86828701614ee9565b9350506020614feb86828701614ee9565b9250506040614ffc86828701614f28565b9150509250925092565b6000806040838503121561501957600080fd5b600061502785828601614ee9565b925050602061503885828601614f28565b9150509250929050565b60006020828403121561505457600080fd5b600061506284828501614efe565b91505092915050565b60006020828403121561507d57600080fd5b600061508b84828501614f13565b91505092915050565b6000602082840312156150a657600080fd5b60006150b484828501614f28565b91505092915050565b600080604083850312156150d057600080fd5b60006150de85828601614f28565b92505060206150ef85828601614ee9565b9150509250929050565b60008060006060848603121561510e57600080fd5b600061511c86828701614f3d565b935050602061512d86828701614f3d565b925050604061513e86828701614f3d565b9150509250925092565b6000806000806080858703121561515e57600080fd5b600061516c87828801614f3d565b945050602061517d87828801614f3d565b935050604061518e87828801614f3d565b925050606061519f87828801614f3d565b91505092959194509250565b6151b4816169ab565b82525050565b6151c381616900565b82525050565b6151d281616900565b82525050565b6151e181616912565b82525050565b60006151f28261684b565b6151fc8185616861565b935061520c818560208601616a29565b80840191505092915050565b615221816169bd565b82525050565b600061523282616856565b61523c818561686c565b935061524c818560208601616a29565b61525581616b46565b840191505092915050565b600061526d60238361686c565b91507f45524332303a207472616e7366657220746f20746865207a65726f206164647260008301527f65737300000000000000000000000000000000000000000000000000000000006020830152604082019050919050565b60006152d360088361686c565b91507f4f766572666c6f770000000000000000000000000000000000000000000000006000830152602082019050919050565b6000615313600a8361686c565b91507f45786365656420636170000000000000000000000000000000000000000000006000830152602082019050919050565b600061535360268361686c565b91507f4f776e61626c653a206e6577206f776e657220697320746865207a65726f206160008301527f64647265737300000000000000000000000000000000000000000000000000006020830152604082019050919050565b60006153b960228361686c565b91507f45524332303a20617070726f766520746f20746865207a65726f20616464726560008301527f73730000000000000000000000000000000000000000000000000000000000006020830152604082019050919050565b600061541f601b8361686c565b91507f536166654d6174683a206164646974696f6e206f766572666c6f7700000000006000830152602082019050919050565b600061545f60118361686c565b91507f4578636565647320617661696c61626c650000000000000000000000000000006000830152602082019050919050565b600061549f600d8361686c565b91507f496e76616c696420726f756e64000000000000000000000000000000000000006000830152602082019050919050565b60006154df60148361686c565b91507f496e73756666696369656e742062616c616e63650000000000000000000000006000830152602082019050919050565b600061551f601e8361686c565b91507f536166654d6174683a207375627472616374696f6e206f766572666c6f7700006000830152602082019050919050565b600061555f60108361686c565b91507f526f756e64206e6f7420636c6f736564000000000000000000000000000000006000830152602082019050919050565b600061559f60268361686c565b91507f416464726573733a20696e73756666696369656e742062616c616e636520666f60008301527f722063616c6c00000000000000000000000000000000000000000000000000006020830152604082019050919050565b6000615605601a8361686c565b91507f536166654d6174683a206469766973696f6e206279207a65726f0000000000006000830152602082019050919050565b600061564560088361686c565b91507f21737563636573730000000000000000000000000000000000000000000000006000830152602082019050919050565b6000615685600f8361686c565b91507f6e756d526f756e6473203e3d20353200000000000000000000000000000000006000830152602082019050919050565b60006156c560108361686c565b91507f216e6577466565526563697069656e74000000000000000000000000000000006000830152602082019050919050565b600061570560078361686c565b91507f216b6565706572000000000000000000000000000000000000000000000000006000830152602082019050919050565b600061574560218361686c565b91507f536166654d6174683a206d756c7469706c69636174696f6e206f766572666c6f60008301527f77000000000000000000000000000000000000000000000000000000000000006020830152604082019050919050565b60006157ab600d8361686c565b91507f4e6f7420696e69746961746564000000000000000000000000000000000000006000830152602082019050919050565b60006157eb60208361686c565b91507f4f776e61626c653a2063616c6c6572206973206e6f7420746865206f776e65726000830152602082019050919050565b600061582b60078361686c565b91507f216e6577436170000000000000000000000000000000000000000000000000006000830152602082019050919050565b600061586b60058361686c565b91507f3e553130340000000000000000000000000000000000000000000000000000006000830152602082019050919050565b60006158ab60178361686c565b91507f496e76616c696420706572666f726d616e6365206665650000000000000000006000830152602082019050919050565b60006158eb60078361686c565b91507f21736861726573000000000000000000000000000000000000000000000000006000830152602082019050919050565b600061592b60218361686c565b91507f45524332303a206275726e2066726f6d20746865207a65726f2061646472657360008301527f73000000000000000000000000000000000000000000000000000000000000006020830152604082019050919050565b600061599160168361686c565b91507f496e76616c6964206d616e6167656d656e7420666565000000000000000000006000830152602082019050919050565b60006159d160258361686c565b91507f45524332303a207472616e736665722066726f6d20746865207a65726f20616460008301527f64726573730000000000000000000000000000000000000000000000000000006020830152604082019050919050565b6000615a37600d8361686c565b91507f45786365656420616d6f756e74000000000000000000000000000000000000006000830152602082019050919050565b6000615a77600083616861565b9150600082019050919050565b6000615a9160118361686c565b91507f4578697374696e672077697468647261770000000000000000000000000000006000830152602082019050919050565b6000615ad160248361686c565b91507f45524332303a20617070726f76652066726f6d20746865207a65726f2061646460008301527f72657373000000000000000000000000000000000000000000000000000000006020830152604082019050919050565b6000615b37601d8361686c565b91507f416464726573733a2063616c6c20746f206e6f6e2d636f6e74726163740000006000830152602082019050919050565b6000615b7760058361686c565b91507f3e553132380000000000000000000000000000000000000000000000000000006000830152602082019050919050565b6000615bb7600b8361686c565b91507f496e697469616c697a65640000000000000000000000000000000000000000006000830152602082019050919050565b6000615bf760078361686c565b91507f21616d6f756e74000000000000000000000000000000000000000000000000006000830152602082019050919050565b6000615c37600b8361686c565b91507f496e76616c6964207070730000000000000000000000000000000000000000006000830152602082019050919050565b6000615c77602a8361686c565b91507f5361666545524332303a204552433230206f7065726174696f6e20646964206e60008301527f6f742073756363656564000000000000000000000000000000000000000000006020830152604082019050919050565b6000615cdd600a8361686c565b91507f216e65774b6565706572000000000000000000000000000000000000000000006000830152602082019050919050565b6000615d1d601f8361686c565b91507f5265656e7472616e637947756172643a207265656e7472616e742063616c6c006000830152602082019050919050565b6000615d5d600f8361686c565b91507f217769746864726177416d6f756e7400000000000000000000000000000000006000830152602082019050919050565b6000615d9d601f8361686c565b91507f45524332303a206d696e7420746f20746865207a65726f2061646472657373006000830152602082019050919050565b608082016000808301549050615de581616a5c565b615df260008601826151c9565b50615dfc81616af8565b615e096020860182615f9b565b50615e1381616b12565b615e206040860182615f7d565b5060018301549050615e3181616a76565b615e3e6060860182615ee7565b5050505050565b60a082016000808301549050615e5a81616aaa565b615e676000860182615f32565b50615e7181616b2c565b615e7e6020860182615ee7565b50615e8881616ac4565b615e956040860182615ee7565b5060018301549050615ea681616a90565b615eb36060860182615f05565b50615ebd81616ade565b615eca6080860182615f05565b5050505050565b8082525050565b615ee18161691e565b82525050565b615ef08161691e565b82525050565b615eff81616937565b82525050565b615f0e81616937565b82525050565b615f1d816169e1565b82525050565b615f2c81616953565b82525050565b615f3b81616953565b82525050565b615f4a81616a17565b82525050565b615f5981616981565b82525050565b615f6881616981565b82525050565b615f778161698b565b82525050565b615f868161698b565b82525050565b615f958161699e565b82525050565b615fa48161699e565b82525050565b6000615fb682846151e7565b915081905092915050565b6000615fcc82615a6a565b9150819050919050565b6000602082019050615feb60008301846151ba565b92915050565b600060608201905061600660008301866151ab565b6160136020830185615f14565b6160206040830184615f50565b949350505050565b600060608201905061603d60008301866151ab565b61604a6020830185615f50565b6160576040830184615f50565b949350505050565b600060608201905061607460008301866151ba565b61608160208301856151ba565b61608e6040830184615f50565b949350505050565b60006040820190506160ab60008301856151ba565b6160b86020830184615f50565b9392505050565b60006080820190506160d460008301876151ba565b6160e16020830186615f8c565b6160ee6040830185615f6e565b6160fb6060830184615ed8565b95945050505050565b600060208201905061611960008301846151d8565b92915050565b60006020820190506161346000830184615218565b92915050565b600060208201905081810360008301526161548184615227565b905092915050565b6000602082019050818103600083015261617581615260565b9050919050565b60006020820190508181036000830152616195816152c6565b9050919050565b600060208201905081810360008301526161b581615306565b9050919050565b600060208201905081810360008301526161d581615346565b9050919050565b600060208201905081810360008301526161f5816153ac565b9050919050565b6000602082019050818103600083015261621581615412565b9050919050565b6000602082019050818103600083015261623581615452565b9050919050565b6000602082019050818103600083015261625581615492565b9050919050565b60006020820190508181036000830152616275816154d2565b9050919050565b6000602082019050818103600083015261629581615512565b9050919050565b600060208201905081810360008301526162b581615552565b9050919050565b600060208201905081810360008301526162d581615592565b9050919050565b600060208201905081810360008301526162f5816155f8565b9050919050565b6000602082019050818103600083015261631581615638565b9050919050565b6000602082019050818103600083015261633581615678565b9050919050565b60006020820190508181036000830152616355816156b8565b9050919050565b60006020820190508181036000830152616375816156f8565b9050919050565b6000602082019050818103600083015261639581615738565b9050919050565b600060208201905081810360008301526163b58161579e565b9050919050565b600060208201905081810360008301526163d5816157de565b9050919050565b600060208201905081810360008301526163f58161581e565b9050919050565b600060208201905081810360008301526164158161585e565b9050919050565b600060208201905081810360008301526164358161589e565b9050919050565b60006020820190508181036000830152616455816158de565b9050919050565b600060208201905081810360008301526164758161591e565b9050919050565b6000602082019050818103600083015261649581615984565b9050919050565b600060208201905081810360008301526164b5816159c4565b9050919050565b600060208201905081810360008301526164d581615a2a565b9050919050565b600060208201905081810360008301526164f581615a84565b9050919050565b6000602082019050818103600083015261651581615ac4565b9050919050565b6000602082019050818103600083015261653581615b2a565b9050919050565b6000602082019050818103600083015261655581615b6a565b9050919050565b6000602082019050818103600083015261657581615baa565b9050919050565b6000602082019050818103600083015261659581615bea565b9050919050565b600060208201905081810360008301526165b581615c2a565b9050919050565b600060208201905081810360008301526165d581615c6a565b9050919050565b600060208201905081810360008301526165f581615cd0565b9050919050565b6000602082019050818103600083015261661581615d10565b9050919050565b6000602082019050818103600083015261663581615d50565b9050919050565b6000602082019050818103600083015261665581615d90565b9050919050565b60006080820190506166716000830187615ed1565b61667e6020830186615f5f565b61668b6040830185615f5f565b6166986060830184615f5f565b95945050505050565b60006020820190506166b66000830184615ef6565b92915050565b600060a0820190506166d16000830188615f23565b6166de6020830187615ed8565b6166eb6040830186615ed8565b6166f86060830185615ef6565b6167056080830184615ef6565b9695505050505050565b60006060820190506167246000830186615f23565b6167316020830185615ed8565b61673e6040830184615ef6565b949350505050565b600060408201905061675b6000830185615f23565b6167686020830184615ef6565b9392505050565b60006020820190506167846000830184615f50565b92915050565b600060408201905061679f6000830185615f50565b6167ac6020830184615f50565b9392505050565b6000610160820190506167c96000830187615f5f565b6167d66020830186615f5f565b6167e36040830185615dd0565b6167f060c0830184615e45565b95945050505050565b600060608201905061680e6000830186615f50565b61681b6020830185615f50565b6168286040830184615f41565b949350505050565b60006020820190506168456000830184615f8c565b92915050565b600081519050919050565b600081519050919050565b600081905092915050565b600082825260208201905092915050565b600073ffffffffffffffffffffffffffffffffffffffff82169050919050565b60006cffffffffffffffffffffffffff82169050919050565b60006fffffffffffffffffffffffffffffffff82169050919050565b600061ffff82169050919050565b600066ffffffffffffff82169050919050565b600060ff82169050919050565b600061690b82616961565b9050919050565b60008115159050919050565b60006cffffffffffffffffffffffffff82169050919050565b60006fffffffffffffffffffffffffffffffff82169050919050565b600061ffff82169050919050565b600073ffffffffffffffffffffffffffffffffffffffff82169050919050565b6000819050919050565b600066ffffffffffffff82169050919050565b600060ff82169050919050565b60006169b6826169f3565b9050919050565b60006169c8826169cf565b9050919050565b60006169da82616961565b9050919050565b60006169ec82616937565b9050919050565b60006169fe82616a05565b9050919050565b6000616a1082616961565b9050919050565b6000616a2282616953565b9050919050565b60005b83811015616a47578082015181840152602081019050616a2c565b83811115616a56576000848401525b50505050565b6000616a6f616a6a83616b57565b61687d565b9050919050565b6000616a89616a8483616b57565b61689d565b9050919050565b6000616aa3616a9e83616b57565b6168b6565b9050919050565b6000616abd616ab883616b57565b6168d2565b9050919050565b6000616ad7616ad283616b64565b61689d565b9050919050565b6000616af1616aec83616b71565b6168b6565b9050919050565b6000616b0b616b0683616b7e565b6168f3565b9050919050565b6000616b25616b2083616b8b565b6168e0565b9050919050565b6000616b3f616b3a83616b98565b61689d565b9050919050565b6000601f19601f8301169050919050565b60008160001c9050919050565b60008160781c9050919050565b60008160801c9050919050565b60008160a01c9050919050565b60008160a81c9050919050565b60008160101c9050919050565b616bae81616900565b8114616bb957600080fd5b50565b616bc581616912565b8114616bd057600080fd5b50565b616bdc81616937565b8114616be757600080fd5b50565b616bf381616981565b8114616bfe57600080fd5b5056fe45524332303a206275726e20616d6f756e7420657863656564732062616c616e636545524332303a207472616e7366657220616d6f756e7420657863656564732062616c616e636545524332303a207472616e7366657220616d6f756e74206578636565647320616c6c6f77616e636545524332303a2064656372656173656420616c6c6f77616e63652062656c6f77207a65726fa26469706673582212202b55410344bf9e986a5e041b912f54d21e1c4b07527147f2eacbfd79b635ab0864736f6c63430007030033",
  "linkReferences": {
    "contracts/V2/libraries/VaultLifecycle.sol": {
      "VaultLifecycle": [
        {
          "length": 20,
          "start": 16771
        },
        {
          "length": 20,
          "start": 19073
        }
      ]
    }
  },
  "deployedLinkReferences": {
    "contracts/V2/libraries/VaultLifecycle.sol": {
      "VaultLifecycle": [
        {
          "length": 20,
          "start": 15945
        },
        {
          "length": 20,
          "start": 18247
        }
      ]
    }
  }
}