{
  "_format": "hh-sol-artifact-1",
  "contractName": "VaultLifecycle",
  "sourceName": "contracts/V2/libraries/VaultLifecycle.sol",
  "abi": [
    {
      "inputs": [
        {
          "internalType": "uint256",
          "name": "currentSupply",
          "type": "uint256"
        },
        {
          "internalType": "uint256",
          "name": "currentBalance",
          "type": "uint256"
        },
        {
          "components": [
            {
              "internalType": "address",
              "name": "asset",
              "type": "address"
            },
            {
              "internalType": "uint8",
              "name": "decimals",
              "type": "uint8"
            },
            {
              "internalType": "uint56",
              "name": "minimumSupply",
              "type": "uint56"
            },
            {
              "internalType": "uint104",
              "name": "cap",
              "type": "uint104"
            }
          ],
          "internalType": "struct Vault.VaultParams",
          "name": "vaultParams",
          "type": "tuple"
        },
        {
          "components": [
            {
              "internalType": "uint16",
              "name": "round",
              "type": "uint16"
            },
            {
              "internalType": "uint104",
              "name": "lockedAmount",
              "type": "uint104"
            },
            {
              "internalType": "uint104",
              "name": "lastLockedAmount",
              "type": "uint104"
            },
            {
              "internalType": "uint128",
              "name": "totalPending",
              "type": "uint128"
            },
            {
              "internalType": "uint128",
              "name": "queuedWithdrawShares",
              "type": "uint128"
            }
          ],
          "internalType": "struct Vault.VaultState",
          "name": "vaultState",
          "type": "tuple"
        }
      ],
      "name": "rollover",
      "outputs": [
        {
          "internalType": "uint256",
          "name": "newLockedAmount",
          "type": "uint256"
        },
        {
          "internalType": "uint256",
          "name": "queuedWithdrawAmount",
          "type": "uint256"
        },
        {
          "internalType": "uint256",
          "name": "newPricePerShare",
          "type": "uint256"
        },
        {
          "internalType": "uint256",
          "name": "mintShares",
          "type": "uint256"
        }
      ],
      "stateMutability": "pure",
      "type": "function"
    },
    {
      "inputs": [
        {
          "internalType": "address",
          "name": "owner",
          "type": "address"
        },
        {
          "internalType": "address",
          "name": "keeper",
          "type": "address"
        },
        {
          "internalType": "address",
          "name": "feeRecipient",
          "type": "address"
        },
        {
          "internalType": "uint256",
          "name": "performanceFee",
          "type": "uint256"
        },
        {
          "internalType": "string",
          "name": "tokenName",
          "type": "string"
        },
        {
          "internalType": "string",
          "name": "tokenSymbol",
          "type": "string"
        },
        {
          "components": [
            {
              "internalType": "address",
              "name": "asset",
              "type": "address"
            },
            {
              "internalType": "uint8",
              "name": "decimals",
              "type": "uint8"
            },
            {
              "internalType": "uint56",
              "name": "minimumSupply",
              "type": "uint56"
            },
            {
              "internalType": "uint104",
              "name": "cap",
              "type": "uint104"
            }
          ],
          "internalType": "struct Vault.VaultParams",
          "name": "_vaultParams",
          "type": "tuple"
        }
      ],
      "name": "verifyConstructorParams",
      "outputs": [],
      "stateMutability": "pure",
      "type": "function"
    }
  ],
  "bytecode": "0x6112ec610026600b82828239805160001a60731461001957fe5b30600052607381538281f3fe730000000000000000000000000000000000000000301460806040526004361061004b5760003560e01c8063a5a9dde714610050578063c29d2a3c1461006c578063d38e31971461009f575b600080fd5b61006a60048036038101906100659190610996565b6100d1565b005b61008660048036038101906100819190610b22565b610442565b6040516100969493929190611124565b60405180910390f35b6100b960048036038101906100b49190610a6d565b61057d565b6040516100c8939291906110ed565b60405180910390f35b600073ffffffffffffffffffffffffffffffffffffffff168973ffffffffffffffffffffffffffffffffffffffff161415610141576040517f08c379a0000000000000000000000000000000000000000000000000000000008152600401610138906110cd565b60405180910390fd5b600073ffffffffffffffffffffffffffffffffffffffff168873ffffffffffffffffffffffffffffffffffffffff1614156101b1576040517f08c379a00000000000000000000000000000000000000000000000000000000081526004016101a890610fed565b60405180910390fd5b600073ffffffffffffffffffffffffffffffffffffffff168773ffffffffffffffffffffffffffffffffffffffff161415610221576040517f08c379a00000000000000000000000000000000000000000000000000000000081526004016102189061100d565b60405180910390fd5b6305f5e1008610610267576040517f08c379a000000000000000000000000000000000000000000000000000000000815260040161025e9061104d565b60405180910390fd5b600085859050116102ad576040517f08c379a00000000000000000000000000000000000000000000000000000000081526004016102a49061106d565b60405180910390fd5b600083839050116102f3576040517f08c379a00000000000000000000000000000000000000000000000000000000081526004016102ea90610f4d565b60405180910390fd5b600073ffffffffffffffffffffffffffffffffffffffff1681600001602081019061031e919061096d565b73ffffffffffffffffffffffffffffffffffffffff161415610375576040517f08c379a000000000000000000000000000000000000000000000000000000000815260040161036c9061108d565b60405180910390fd5b600081604001602081019061038a9190610b86565b66ffffffffffffff16116103d3576040517f08c379a00000000000000000000000000000000000000000000000000000000081526004016103ca906110ad565b60405180910390fd5b60008160600160208101906103e89190610ad0565b6cffffffffffffffffffffffffff1611610437576040517f08c379a000000000000000000000000000000000000000000000000000000000815260040161042e90610fcd565b60405180910390fd5b505050505050505050565b600080600080600085606001602081019061045d9190610af9565b6fffffffffffffffffffffffffffffffff1690506000610486828a6106b190919063ffffffff16565b9050600088602001602081019061049d9190610baf565b60ff16600a0a90506104b08b8383610701565b945060006104d9866104cb848761073f90919063ffffffff16565b6107af90919063ffffffff16565b905060006104f0828e61080590919063ffffffff16565b9050600080821161050257600061054c565b61054b8261053d8f8e608001602081019061051d9190610af9565b6fffffffffffffffffffffffffffffffff1661073f90919063ffffffff16565b6107af90919063ffffffff16565b5b9050610561818e6106b190919063ffffffff16565b8189859950995099509950505050505050945094509450949050565b60008060008087600001600f9054906101000a90046cffffffffffffffffffffffffff166cffffffffffffffffffffffffff16905060008860010160009054906101000a90046fffffffffffffffffffffffffffffffff166fffffffffffffffffffffffffffffffff169050816105fd828a6106b190919063ffffffff16565b11156106a5576106506305f5e1006106428961063486610626878f6106b190919063ffffffff16565b6106b190919063ffffffff16565b61073f90919063ffffffff16565b6107af90919063ffffffff16565b945061068d6305f5e10061067f88610671858d6106b190919063ffffffff16565b61073f90919063ffffffff16565b6107af90919063ffffffff16565b93506106a2848661080590919063ffffffff16565b92505b50509450945094915050565b6000828211156106f6576040517f08c379a00000000000000000000000000000000000000000000000000000000081526004016106ed90610f8d565b60405180910390fd5b818303905092915050565b60008084116107105781610736565b61073584610727858561073f90919063ffffffff16565b6107af90919063ffffffff16565b5b90509392505050565b60008083141561075257600090506107a9565b600082840290508284828161076357fe5b04146107a4576040517f08c379a000000000000000000000000000000000000000000000000000000000815260040161079b9061102d565b60405180910390fd5b809150505b92915050565b60008082116107f3576040517f08c379a00000000000000000000000000000000000000000000000000000000081526004016107ea90610fad565b60405180910390fd5b8183816107fc57fe5b04905092915050565b600080828401905083811015610850576040517f08c379a000000000000000000000000000000000000000000000000000000000815260040161084790610f6d565b60405180910390fd5b8091505092915050565b60008135905061086981611215565b92915050565b60008083601f84011261088157600080fd5b8235905067ffffffffffffffff81111561089a57600080fd5b6020830191508360018202830111156108b257600080fd5b9250929050565b6000608082840312156108cb57600080fd5b81905092915050565b600060a082840312156108e657600080fd5b81905092915050565b6000813590506108fe8161122c565b92915050565b60008135905061091381611243565b92915050565b6000813590506109288161125a565b92915050565b60008135905061093d81611271565b92915050565b60008135905061095281611288565b92915050565b6000813590506109678161129f565b92915050565b60006020828403121561097f57600080fd5b600061098d8482850161085a565b91505092915050565b60008060008060008060008060006101408a8c0312156109b557600080fd5b60006109c38c828d0161085a565b99505060206109d48c828d0161085a565b98505060406109e58c828d0161085a565b97505060606109f68c828d0161092e565b96505060808a013567ffffffffffffffff811115610a1357600080fd5b610a1f8c828d0161086f565b955095505060a08a013567ffffffffffffffff811115610a3e57600080fd5b610a4a8c828d0161086f565b935093505060c0610a5d8c828d016108b9565b9150509295985092959850929598565b60008060008060808587031215610a8357600080fd5b6000610a91878288016108ef565b9450506020610aa28782880161092e565b9350506040610ab38782880161092e565b9250506060610ac48782880161092e565b91505092959194509250565b600060208284031215610ae257600080fd5b6000610af084828501610904565b91505092915050565b600060208284031215610b0b57600080fd5b6000610b1984828501610919565b91505092915050565b6000806000806101608587031215610b3957600080fd5b6000610b478782880161092e565b9450506020610b588782880161092e565b9350506040610b69878288016108b9565b92505060c0610b7a878288016108d4565b91505092959194509250565b600060208284031215610b9857600080fd5b6000610ba684828501610943565b91505092915050565b600060208284031215610bc157600080fd5b6000610bcf84828501610958565b91505092915050565b6000610be5600c83611169565b91507f21746f6b656e53796d626f6c00000000000000000000000000000000000000006000830152602082019050919050565b6000610c25601b83611169565b91507f536166654d6174683a206164646974696f6e206f766572666c6f7700000000006000830152602082019050919050565b6000610c65601e83611169565b91507f536166654d6174683a207375627472616374696f6e206f766572666c6f7700006000830152602082019050919050565b6000610ca5601a83611169565b91507f536166654d6174683a206469766973696f6e206279207a65726f0000000000006000830152602082019050919050565b6000610ce5600483611169565b91507f21636170000000000000000000000000000000000000000000000000000000006000830152602082019050919050565b6000610d25600783611169565b91507f216b6565706572000000000000000000000000000000000000000000000000006000830152602082019050919050565b6000610d65600d83611169565b91507f21666565526563697069656e74000000000000000000000000000000000000006000830152602082019050919050565b6000610da5602183611169565b91507f536166654d6174683a206d756c7469706c69636174696f6e206f766572666c6f60008301527f77000000000000000000000000000000000000000000000000000000000000006020830152604082019050919050565b6000610e0b601783611169565b91507f496e76616c696420706572666f726d616e6365206665650000000000000000006000830152602082019050919050565b6000610e4b600a83611169565b91507f21746f6b656e4e616d65000000000000000000000000000000000000000000006000830152602082019050919050565b6000610e8b600683611169565b91507f21617373657400000000000000000000000000000000000000000000000000006000830152602082019050919050565b6000610ecb600e83611169565b91507f216d696e696d756d537570706c790000000000000000000000000000000000006000830152602082019050919050565b6000610f0b600683611169565b91507f216f776e657200000000000000000000000000000000000000000000000000006000830152602082019050919050565b610f47816111eb565b82525050565b60006020820190508181036000830152610f6681610bd8565b9050919050565b60006020820190508181036000830152610f8681610c18565b9050919050565b60006020820190508181036000830152610fa681610c58565b9050919050565b60006020820190508181036000830152610fc681610c98565b9050919050565b60006020820190508181036000830152610fe681610cd8565b9050919050565b6000602082019050818103600083015261100681610d18565b9050919050565b6000602082019050818103600083015261102681610d58565b9050919050565b6000602082019050818103600083015261104681610d98565b9050919050565b6000602082019050818103600083015261106681610dfe565b9050919050565b6000602082019050818103600083015261108681610e3e565b9050919050565b600060208201905081810360008301526110a681610e7e565b9050919050565b600060208201905081810360008301526110c681610ebe565b9050919050565b600060208201905081810360008301526110e681610efe565b9050919050565b60006060820190506111026000830186610f3e565b61110f6020830185610f3e565b61111c6040830184610f3e565b949350505050565b60006080820190506111396000830187610f3e565b6111466020830186610f3e565b6111536040830185610f3e565b6111606060830184610f3e565b95945050505050565b600082825260208201905092915050565b6000611185826111cb565b9050919050565b6000819050919050565b60006cffffffffffffffffffffffffff82169050919050565b60006fffffffffffffffffffffffffffffffff82169050919050565b600073ffffffffffffffffffffffffffffffffffffffff82169050919050565b6000819050919050565b600066ffffffffffffff82169050919050565b600060ff82169050919050565b61121e8161117a565b811461122957600080fd5b50565b6112358161118c565b811461124057600080fd5b50565b61124c81611196565b811461125757600080fd5b50565b611263816111af565b811461126e57600080fd5b50565b61127a816111eb565b811461128557600080fd5b50565b611291816111f5565b811461129c57600080fd5b50565b6112a881611208565b81146112b357600080fd5b5056fea2646970667358221220523c8f3e8ab89024ae6f66fe26488229f507d0966154fea41d0c4d1be7f570ed64736f6c63430007030033",
  "linkReferences": {},
  "deployedLinkReferences": {}
}