{
  "_format": "hh-sol-artifact-1",
  "contractName": "IRibbonVaultBase",
  "sourceName": "contracts/V2/interfaces/IRibbonVaultBase.sol",
  "abi": [
    {
      "inputs": [],
      "name": "rollVault",
      "outputs": [],
      "stateMutability": "nonpayable",
      "type": "function"
    },
    {
      "inputs": [],
      "name": "totalBalance",
      "outputs": [
        {
          "internalType": "uint256",
          "name": "",
          "type": "uint256"
        }
      ],
      "stateMutability": "view",
      "type": "function"
    }
  ],
  "bytecode": "0x608060405234801561001057600080fd5b5060c68061001f6000396000f3fe6080604052348015600f57600080fd5b506004361060325760003560e01c8063864366e2146037578063ad7a672f14603f575b600080fd5b603d6059565b005b6045605b565b60405160509190606d565b60405180910390f35b565b600090565b6067816086565b82525050565b6000602082019050608060008301846060565b92915050565b600081905091905056fea2646970667358221220db690caca760bb6271c042fc8dac905882ce8d3412ea091f77271f2b3dd72fc664736f6c63430007030033",
  "linkReferences": {},
  "deployedLinkReferences": {}
}